:020000040800F2
:1000000000000120BD8D0408398E040835E2030884
:1000100075E20308398E0408398E040800000000D8
:10002000000000000000000000000000398E0408FD
:10003000398E040800000000398E0408CDDC030866
:10004000398E0408398E0408398E0408398E040864
:10005000398E0408398E04083DEA030869EB030869
:100060002DEB0308F1EA0308B5EA0308E976040872
:10007000D9760408C9760408B9760408A576040878
:10008000917604087D760408398E0408398E0408B8
:10009000398E0408398E0408398E040879EA030879
:1000A000398E0408F16B0408398E0408E16B0408EA
:1000B000398E0408398E0408D16B0408817804084D
:1000C000A5780408C1770408E5770408398E040888
:1000D000398E040809630408FD620408F16204080B
:1000E00001EA0308398E0408398E0408AD6B040850
:1000F000CD6B0408398E0408BD6B040869760408CA
:10010000398E0408398E0408398E0408398E0408A3
:10011000E5620408D9620408398E0408C11A01088E
:10012000557604084176040819620408C16204087F
:100130002D76040800000000000000000000000010
:10014000000000000000000000000000591C010831
:100150001976040805760408F1750408398E040838
:10016000F976040821770408398E0408398E0408CA
:10017000398E0408398E04080000000000000000D9
:10018000398E0408398E0408398E0408398E040823
:10019000398E0408398E040800000000398E0408E6
:1001A000000000000000000000000000398E04087C
:1001B000398E0408398E0408000000000000000099
:1001C000000000000000000000000000000000002F
:1001D000000000000000000000000000398E04084C
:0801E000148904000100000075
:1001E80004008000586601205067012000000000CC
:1001F80000000000230010000C6601201468012094
:1002080000000000512002080D003400AC5C012001
:1002180024680120000000003D5B0308130004006F
:10022800F85B012058680120000000004C07000816
:10023800F6210C00FC5B01205C6801200000000036
:1002480050070008F5317400305B01206868012010
:1002580000000000AD3B01080B3014001C5B0120BE
:10026800DC680120000000005C07000801010400B0
:10027800185B0120F0680120000000000000000069
:1002880000010400145B0120F46801200000000054
:100298007007000802010300105B0120F8680120C4
:1002A8000000000015C30208FD011E00DC5A0120F1
:1002B800FC6801200000000025CC03080610180087
:1002C800BC5A01201C690120000000002DBB020857
:1002D800FB010100B85A0120346901200000000028
:1002E80081DB0308FC0109008459012038690120D9
:1002F8000000000091DB030802000C0050590120A7
:100308004469012000000000000000000A604A0063
:100318005C2E0120506901200000000074070008CD
:1003280034001000805801209C6901200000000062
:10033800FDBA02081102080058580120AC690120D2
:1003480000000000BE0700081212040050580120E7
:10035800B469012000000000C607000818202C001E
:1003680024580120B869012000000000CDD50308F9
:1003780012200D00FC570120E46901200000000054
:10038800CA070008F9010400B84C0120F4690120EB
:1003980000000000A1CC030818020200B0480120A8
:1003A800F8690120000000000000000017020B009F
:1003B800A4480120FC690120000000005DD003086A
:1003C800FA01020080480120086A012000000000AC
:1003D80021D1030802020300283A01200C6A0120F7
:1003E80000000000000000000C020300143A012085
:1003F800106A0120000000004DD00308FE0109002A
:1004080014440120146A01200000000039D00308B8
:100418002F001100A8E701200CE8012000000000CF
:10042800D80700080510060004E8012020E801208C
:1004380000000000EA07000826000E0038E8012046
:1004480028E80120000000003D3201081F201C00A0
:1004580024E101206CE8012000000000F0070008FA
:10046800050204008CE2012088E801200000000059
:100478000C08000803010A00EEE001208CE80120C6
:100488000000000010080008140004002CF80120E7
:1004980034F80120000000001A0800080E806801E6
:1004A800CAEC012038F801200000000031B9020828
:1004B8000902010080F50120A0F9012000000000D8
:1004C8001E0800080C20B4009AEE0120A4F90120AF
:1004D80000000000D5C202080102050046EC012018
:1004E80058FA012000000000C9A001080002050018
:1004F80038F2012060FA012000000000000000002E
:100508001B02080014F2012068FA01200000000014
:10051800C5D0030801200800A4EF012070FA0120CB
:1005280000000000200800081900050008F5012057
:1005380078FA0120000000002808000837001E0093
:1005480068EF012080FA0120000000002E08000852
:100558001E000500F4EF0120A0FA012000000000B1
:100568004C0800081B00F400A0E80120A8FA0120AC
:100578000000000065AE01080E020200E0F3012051
:100588009CFB01200000000052080008F82106002A
:10059800FA02022010080220000000005408000897
:1005A80003123300D0010220B60702200000000029
:1005B8005A0800082500960064020220100702204D
:1005C800000000000000000015007000480502202F
:1005D8002806022000000000000000002A00600039
:1005E80004020220C80502200000000009B9020820
:1005F8002C001000B8050220A60702200000000009
:100608004D2D02082B00240024050220E9070220B2
:1006180000000000212D020829107800B8000220EF
:1006280098060220000000000000000028101000BA
:1006380098FE012018080220000000003D20020852
:1006480013020300C60C0220280D0220000000003F
:100658008E08000807020200040D02202C0D02205B
:10066800000000009208000806021000D00C0220CA
:10067800300D022000000000BDD1030808120C0054
:10068800BA0C0220400D022000000000A5D003088B
:10069800F7010600B40C02204C0D022000000000F7
:1006A800940800080A020A00580C0220540D02207F
:1006B800000000009A080008030001003C0C02201A
:1006C800600D022000000000000000001010030070
:1006D800B00B0220640D022000000000A4080008EE
:1006E8001A000E00980B0220680D0220000000007E
:1006F800A808000816000800DC100220E8100220F4
:1007080000000000B60800081A023C004C11022044
:10071800181B0220000000001DD303082700040056
:10072800843A0220541B022000000000BE08000882
:1007380010020100903A02208C3A022000000000CA
:04074800C2080008DB
:10074C000804440000000000010000000202000048
:10075C002B21231E64010100000001000A01290065
:10076C00230A0000FA000000003001000000010024
:10077C00000000000000000000000000000000006D
:10078C00000000000000020000019E077D002C010B
:10079C0096005802200001005A005A005A00280006
:1007AC00020001000A00F401B80BB80BB80B2000D2
:1007BC00C4090000000001010101FFFFFFFF000060
:1007CC00000100000553583130000000000000000B
:1007DC0000000000000000000000000000002000ED
:1007EC0001010000000000000001000000050000F5
:1007FC0001020300000000000000000000000000E7
:10080C0000000000040101006C1600000000030051
:10081C0000460000E8036400040A000100002801FF
:10082C00000020003200C800D007960014003200EF
:10083C002800B00440060005500014000F00080109
:10084C0000000100000000000201F401140000008F
:10085C00000000000000000000000000000000008C
:10086C00000000000000000000000000000000007C
:10087C00000000000000000000000000000000006C
:10088C00010000000000023C3F01000000000000DD
:10089C004A01B400D6012600000500007E05EA05D9
:1008AC00B4050300E803D0070000C4090700B40135
:0708BC0028282003000000C2
:1008C30000C20100000008001A030000000000003D
:1008D3000000000000000000000000000000000015
:1008E300000000000403090412010002020000409A
:1008F30083044057000201020301000012010002B9
:100903000000004083042A57000201020301000093
:100913000A06000200000040010000000907200051
:10092300010104C03209040000020806500507054E
:100933008102400000070501024000000902200077
:10094300010104C03209040000020806500507052E
:100953008102400000070501024000000902200057
:10096300010104C03209040000020806500507050E
:100973008102000200070501020002000A060002CC
:10098300000000400100000009074300020104C009
:1009930032090400000102020100052400100105D0
:1009A3002401000104240202052406000107058234
:1009B300030800FF09040100020A00000007050103
:1009C30002400000070581024000000009024300C5
:1009D300020100C0320904000001020201000524E3
:1009E300001001052401000104240202052406006D
:1009F300010705820308001009040100020A000030
:100A03000007050102000200070581020002000041
:100A130009024300020100C032090400000102027E
:100A23000100052400100105240100010424020231
:100A330005240600010705820308001009040100CC
:100A4300020A0000000705010240000007058102B9
:100A530040000000100000000060024010600240EF
:100A63000000000000000000000B00000000000078
:100A73000000000000000000006002402860024007
:100A83000100000000000000060C00000000000050
:100A930000000000000000000060024040600240CF
:100AA3000200000000000000100D00000000000024
:100AB3000000000000000000006002405860024097
:100AC3000300000000000000160E000000000000FC
:100AD300000000000000000000600240706002405F
:100AE3000400000000000000200F000000000000D0
:100AF3000000000000000000006002408860024027
:100B030005000000000000002610000000000000A7
:100B1300000000000000000000600240A0600240EE
:100B2300060000000000000030110000000000007B
:100B3300000000000000000000600240B8600240B6
:100B43000700000000000000362F00000000000036
:100B53000000000000000000006402401064024036
:100B6300000000000000000000380000000000004A
:100B730000000000000000000064024028640240FE
:100B83000100000000000000063900000000000022
:100B930000000000000000000064024040640240C6
:100BA3000200000000000000103A000000000000F6
:100BB300000000000000000000640240586402408E
:100BC3000300000000000000163B000000000000CE
:100BD3000000000000000000006402407064024056
:100BE3000400000000000000203C000000000000A2
:100BF300000000000000000000640240886402401E
:100C03000500000000000000264400000000000072
:100C1300000000000000000000640240A0640240E5
:100C23000600000000000000304500000000000046
:100C3300000000000000000000640240B8640240AD
:100C4300070000000000000036460000000000001E
:100C530000000000000000000101010000FFFF0090
:100C630000000000AA5505010000012D202D2D20B4
:100C73002D2D2D2D202D2D2D2D00000000000000E9
:100C830000000000000000000000AA550B01000056
:100C9300AA5507010000AA55090200000000000040
:100CA30001000000C012AA5503009F00FF1FFF1F91
:100CB300080401200400000048E8012000000000AF
:100CC30001000000FFFFFFFF000200051002700B90
:100CD30000000100E001010101000000B9A20108C8
:100CE30000000000900501203820050800000000E6
:100CF300000000000000000000000000E40F0508F1
:100D030000000000000000004A060120040000006B
:100D1300BC1F05080D0000008DD30108642C0120C1
:100D230000000000CC1505080D00000065D3010884
:100D3300582C012000000000A4170508080000003B
:100D4300000000004C2C01200400000038160508A8
:100D53000D0000006DA30108402C012000000000DD
:100D6300FC1605080300000051D60108342C0120AD
:100D730000000000482005080300000051D60108C8
:100D8300282C012000000000A41005080100000029
:100D93000000000000000000000000000000000050
:100DA3000E00000000000000000000000000000032
:100DB30038200508000000000000000000000000CB
:100DC30000000000E40F0508000000000000000020
:100DD3004A06012004000000681F05080300000004
:100DE30041AD01081C2C012008000000381605083D
:100DF3000D0000006DA30108402C0120000000003D
:100E0300FC1605080300000051D60108342C01200C
:100E130000000000482005080300000051D6010827
:100E2300282C012000000000A41005080100000088
:100E330000000000000000000000000000000000AF
:100E43000E00000000000000000000000000000091
:100E53005020050800000000000000000000000012
:100E630000000000E40F050800000000000000007F
:100E73004A06012004000000701F0508030000005B
:100E830051D60108702C012000000000A4100508B1
:100E9300010000000000000000000000000000004E
:100EA300000000000E000000000000000000000031
:100EB3000000000020700020702D7200FFFFFFFF74
:100EC300080100000000000000000000D8270120F6
:100ED300FA00000001000000010000000000803F54
:100EE3000000803F00000000000000000000000040
:100EF30000000000000000000000000000000000EF
:100F03000000000000000000FFFF2D202D2D202DEC
:100F13002D2D2D202D2D2D000000000000000000A0
:100F2300000000000000000000000000A2EF01200C
:100F33000000F40101000000A0EF01200000F40113
:100F4300010000009EEF01200000F40101000000F9
:100F53009CEF01200000F401010000009AEF012042
:100F63000000F4010100000098EF01200000F401EB
:100F73000100000096EF01200000F40101000000D1
:100F83001810050800000000000000000000000029
:100F93000000000030100508000000000000000001
:100FA30000000000000000005010050808000000C9
:100FB30000000000B4060120000000005C100508DA
:100FC3000800000000000000A80601200000000047
:100FD3006810050808000000000000009C060120BE
:100FE30000000000541C0508080000000000000079
:100FF300900601200000000074100508080000009E
:101003000000000084060120000000008010050895
:101013000800000000000000780601200000000026
:101023008C10050808000000000000006C06012079
:1010330000000000981005080200000041D80108D4
:101043000200000000000000A410050801000000D9
:10105300000000000000000000000000000000008D
:101063000E0000000000000000000000000000006F
:10107300B1AB010869AB0108C006012094EF012060
:101083000532010092EF0120E803D00701000000C0
:1010930090EF0120E803D007010000008EEF01204C
:1010A300E803D007010000008CEF01201E00B80BFD
:1010B300010000008AEF01201E00F401010000007E
:1010C30088EF0120140064000100000086EF012076
:1010D3000000C800010000005AEF012001FA0100DE
:1010E30059EF0120010A010066EF012000FA010017
:1010F30064EF01200000D0070500000062EF01202B
:1011030000FA010060EF01200000D0070500000095
:101113005EEF012000FA01005CEF01200000D00720
:101123000500000058EF012000640100AC10050821
:10113300B4100508D01005080000000000000000EE
:10114300000000000000000030100508000000004F
:10115300000000000000000000000000340D05083E
:1011630008000000000000000C080120000000003F
:10117300E41005080800000000000000000801203A
:1011830000000000F810050808000000000000003F
:10119300F4070120000000000C11050808000000FE
:1011A30000000000E80701200000000020110508EE
:1011B3000800000000000000DC0701200000000020
:1011C300301105080800000000000000D0070120CE
:1011D30000000000401105080800000000000000A6
:1011E300C40701200000000050110508070000009B
:1011F30000000000BC07012000000000601105088A
:101203000300000051D60108B007012000000000D0
:10121300981005080200000041D8010802000000F0
:1012230000000000A41005080100000000000000F9
:101233000000000000000000000000000E0000009D
:1012430000000000000000000000000090110508ED
:10125300000000000000000000000000000000008B
:101263002A0F0508040000003DD10108000000001A
:1012730000000000A41005080100000000000000A9
:101283000000000000000000000000000E0000004D
:10129300000000000000000000000000D411050859
:1012A3000000000000000000F40501200000000021
:1012B300E811050807000000000000006408012091
:1012C30000000000F4110508080000000000000001
:1012D3005808012000000000001205080700000064
:1012E3000000000050080120000000000C12050857
:1012F3000800000000000000440801200000000076
:101303001C12050807000000000000003C08012033
:10131300000000002C120508080000000000000077
:101323003008012000000000381205080700000003
:1013330000000000280801200000000044120508F6
:10134300070000000000000020080120000000004A
:101353004C120508070000000000000018080120D7
:1013630000000000981005080200000041D80108A1
:101373000100000000000000A410050801000000A7
:10138300000000000000000000000000000000005A
:101393000E0000000000000000000000000000003C
:1013A300F86601200100C40900000000F666012070
:1013B3000100C40900000000F46601200100C40913
:1013C30000000000F26601200100C40900000000D3
:1013D300EE6601200100C40900000000F066012050
:1013E3000100C40900000000EC6601200100C409EB
:1013F30000000000EA6601200100C40900000000AB
:101403005AEC01200000FFFF0A00000058EC012005
:101413000100C8000100000056EC012032003075C5
:101423003200000054EC0120055A050051EC012064
:1014330000FF010053EC0120010000006C080120B3
:101443004FEC012002000000A8C1040850EC012069
:1014530000FF010052EC0120010000006C08012094
:101463004EEC012002000000A8C1040844EC012056
:1014730080C1803E0500000042EC012080C1803E17
:101483000500000040EC012080C1803E0500000003
:101493003EEC012080C1803E050000003DEC0120B0
:1014A30000FF01003CEC01200A3201003BEC01206B
:1014B30004000000C4C704083AEC01200200000045
:1014C300D8C7040819AB0108C9AA01087408012088
:1014D300B0EF0120EE02CA0801000000AEEF0120C8
:1014E30000C8010064000000ADEF012000C8010046
:1014F30064000000ACEF012002000000E4C7040810
:1015030000000000000000008C0901203CE20120E3
:101513009CFF2C0100000000160401200A000000BB
:10152300F0C7040830EC0120E0150C1700000000A0
:10153300180401200800000038C004081704012023
:101543000500000030C9040832EC0120020000004D
:1015530008C80408BCEF01200100FF7F0100000060
:10156300BBEF01200200000014C8040840EE012074
:101573000000C201010000003EEE01200000C20194
:10158300010000003CEE01200000C2010100000048
:101593003AEE01200000C201010000004AEE0120E2
:1015A3000A00F4010100000048EE01200A00F401E2
:1015B3000100000046EE01200000050001000000CC
:1015C30044EE0120010004000100000042EE01206E
:1015D3000100803E0500000036EE01200000803E41
:1015E3006400000034EE01200000803E640000002F
:1015F30032EE01200000803E6400000038EE01203E
:1016030003000002010000005EEE01200000F4016F
:10161300010000005CEE01200000F4010100000065
:101623005AEE01200000F4010100000058EE0120F1
:101633000000F4010100000064EE0120C800E8038B
:101643000100000062EE01201E00E803010000001B
:1016530060EE01200000E8030100000056EE0120C7
:101663000000803E0100000054EE01200000803E97
:101673000100000052EE01200000803E0100000046
:1016830050EE01200000803E010000004EEE0120DC
:101693000000803E010000004CEE01200000803E6F
:1016A3000100000095EE01201964010099EE01206C
:1016B3000064010098EE01200064010097EE012010
:1016C3000A32010096EE01200300000024C804083A
:1016D30092EE0120E803D0070A00000090EE0120FB
:1016E30000FA01000A0000008FEE012000FA010059
:1016F3000A0000008EEE012000FA01000A0000003B
:101703007DEE0120006401007CEE012000640100F5
:1017130084EE0120006401000A00000083EE012032
:10172300006401000A00000082EE01200064010051
:101733000A00000087EE0120006401000A00000097
:1017430086EE0120006401000A00000085EE0120FE
:10175300006401000A00000081EE012000FF010087
:101763000A00000080EE012000FF01000A000000D3
:101773007FEE012000FF01000A0000008DEE012032
:10178300005F01000A0000008CEE0120005F0100F1
:101793000A0000008BEE0120005F01000A00000038
:1017A3008AEE0120005F01000A00000089EE01209B
:1017B30019AF01000A00000088EE012019AF0100F3
:1017C3000A000000B8EC0120000A0100B7EC012078
:1017D300000A0100B6EC0120000A0100C8EC012058
:1017E30000FA0100C7EC012000FA0100C6EC012059
:1017F30000FA0100C4EC01200000F4010100000024
:10180300C2EC01200000F40101000000C0EC012043
:101813000000F40101000000BEEC01200000F4010F
:1018230001000000BCEC01200000F40101000000F5
:10183300BAEC01200000F401010000007AEE01205F
:10184300FF08010079EE01200164010078EE012018
:101853000064010077EE01200100000034C8040891
:1018630076EE012000C8010074EE01200000D007CD
:101873000100000073EE012000C8010072EE012098
:1018830000C8010071EE012000C8010070EE0120C4
:1018930000C801006FEE012000FA01000A000000F9
:1018A3006CEE012000FA01000A00000069EE01203D
:1018B30000FA01000A0000006EEE012000FA0100A8
:1018C3000A0000006BEE012000FA01000A0000008C
:1018D30068EE012000FA01000A0000006DEE01200D
:1018E30000FA01000A0000006AEE012000FA01007C
:1018F3000A00000067EE012000FA01000A00000060
:1019030057EF012000C8010056EF012000C8010075
:1019130055EF012000C8010054EF012000C8010069
:1019230053EF012000C8010052EF012000C801005D
:1019330051EF012000C8010050EF012000C8010051
:101943004FEF012000C8010035AA0108E1D40108C6
:10195300DC0901205C120508000000000000000003
:101963000000000000000000901B050809000000B3
:1019730000000000340B012004000000A81B050830
:101983000900000000000000280B012004000000F3
:10199300641D050809000000000000001C0B012065
:1019A30004000000980C0508090000000000000076
:1019B300100B0120040000006C1205080900000050
:1019C30000000000040B012004000000741205084D
:1019D3000900000000000000F80A012004000000D4
:1019E3007C1205080900000000000000EC0A012039
:1019F3000400000084120508090000000000000034
:101A0300E00A012004000000A41005080100000002
:101A130000000000000000000000000000000000C3
:101A23000E000000000000000000000000000000A5
:101A3300A8140508000000000000000000000000DA
:101A430000000000B4550508070000000000000076
:101A5300640B012000000000B81405080800000012
:101A630000000000580B012000000000C41405080A
:101A730008000000000000004C0B012000000000E3
:101A8300CC1405080800000000000000400B0120F2
:101A930000000000981005080200000041D801086A
:101AA3000100000000000000A41005080100000070
:101AB3000000000000000000000000000000000023
:101AC3000E00000000000000000000000000000005
:101AD300DC14050800000000000000000000000006
:101AE30000000000EC1405080D00000000000000D9
:101AF300A00B012000000000F41405080D000000F5
:101B030000000000940B012000000000FC140508F5
:101B130007000000000000008C0B01200000000003
:101B2300041505080D00000000000000800B0120D3
:101B3300000000000C1505080D0000000000000067
:101B4300740B0120000000001415050807000000B5
:101B5300000000006C0B0120000000009810050835
:101B63000200000041D8010801000000000000004D
:101B7300A4100508010000000000000000000000A0
:101B830000000000000000000E0000000000000044
:101B930000000000000000001C1505080000000004
:101BA300000000000000000000000000B45505081C
:101BB3000C000000000000005CEC012000000000AD
:101BC300301505080C000000000000005EEC012049
:101BD30000000000401505080C0000000000000094
:101BE30094EC012000000000501505080C000000D3
:101BF3000000000088EC01200000000064150508C7
:101C03000C0000000000000060EC01200000000058
:101C1300701505080C0000000000000062EC0120B4
:101C230000000000781505080C000000000000000B
:101C330064EC0120000000008C1505080C00000076
:101C43000000000066EC0120000000009415050868
:101C53000C0000000000000068EC01200000000000
:101C63009C1505080C00000000000000A6EC0120F4
:101C730000000000B41505080C000000000000007F
:101C83006AEC012000000000C01505080C000000EC
:101C9300000000006CEC0120000000006417050840
:101CA3000C000000000000006EEC012000000000AA
:101CB300C81505080C0000000000000070EC0120AE
:101CC30000000000D41505080C000000000000000F
:101CD30072EC012000000000E01505080C00000074
:101CE3000000000074EC012000000000EC15050862
:101CF3000C0000000000000076EC01200000000052
:101D0300F81505080C0000000000000078EC012025
:101D130000000000041605080C000000000000008D
:101D23008CEC0120000000000C1605080C000000DC
:101D3300000000008AEC01200000000014160508D2
:101D43000C0000000000000098EC012000000000DF
:101D5300201605080C000000000000009AEC01208A
:101D6300000000002C1605080C0000000000000015
:101D7300A0EC012000000000480905080C00000049
:101D8300000000007AEC012000000000381605086E
:101D93000C0000000000000082EC012000000000A5
:101DA300401605080C000000000000007CEC012038
:101DB300000000004C1605080C00000000000000A5
:101DC3007EEC012000000000581605080C000000FE
:101DD3000000000080EC01200000000060160508F0
:101DE3000C0000000000000084EC01200000000053
:101DF3006C1605080C000000000000008EEC0120AA
:101E030000000000741605080C000000000000002C
:101E130086EC012000000000801605080C0000007D
:101E23000000000096EC0120000000008C1605085D
:101E33000C0000000000000090EC012000000000F6
:101E4300941605080C0000000000000092EC01202D
:101E5300000000009C1605080C00000000000000B4
:101E63009CEC012000000000A41605080C000000F3
:101E7300000000009EEC012000000000AC160508E5
:101E83000C00000000000000AEEC01200000000088
:101E9300A41005080100000000000000000000007D
:101EA30000000000000000000E0000000000000021
:101EB3000000000000000000B41605080000000048
:101EC300000000000000000000000000C01605082C
:101ED3000D00000000000000F80B012000000000CE
:101EE300C81605080D00000000000000EC0B0120DF
:101EF30000000000D01605080700000000000000E5
:101F0300E40B012000000000DC16050807000000B8
:101F130000000000DC0B012000000000E8160508AB
:101F23000900000000000000D00B012000000000A9
:101F3300F41605080900000000000000C40B01208E
:101F43000000000000170508090000000000000061
:101F5300B80B01200000000010170508090000005D
:101F630000000000AC0B01200000000098100508E1
:101F73000200000041D80108010000000000000039
:101F8300A41005080100000000000000000000008C
:101F930000000000000000000E0000000000000030
:101FA30000000000000000002417050800000000E6
:101FB30000000000000000000000000030100508D1
:101FC300000000000000000000000000000000000E
:101FD300341705080D00000000000000340C012038
:101FE30000000000401705080B000000000000007F
:101FF300280C0120000000004C1705080B0000000E
:10200300000000001C0C0120000000005C17050804
:102013000800000000000000100C01200000000078
:10202300701705080300000051D60108040C0120B5
:1020330000000000981005080200000041D80108C4
:102043000200000000000000A410050801000000C9
:10205300000000000000000000000000000000007D
:102063000E0000000000000000000000000000005F
:102073007C170508000000000000000000000000BD
:10208300000000008C170508050000000000000098
:10209300B5EC0120000000009810050802000000C4
:1020A30041D801080100000000000000A410050849
:1020B300010000000000000000000000000000001C
:1020C300000000000E0000000000000000000000FF
:1020D3000000000094170508000000000000000045
:1020E3000000000000000000E40F050800000000ED
:1020F30000000000AB03012004000000A017050846
:102103000D000000A1D10108880C0120000000008F
:10211300BC1F05080D00000071A201087C0C012002
:1021230000000000CC1505080D00000055A20108B1
:10213300700C012000000000A4170508080000002F
:1021430000000000640C012004000000381605089C
:102153000D0000009FA10108580C012000000000A1
:10216300AC17050809000000000000004C0C01201A
:1021730004000000FC1605080300000051D6010806
:10218300400C012000000000A4100508010000001D
:10219300000000000000000000000000000000003C
:1021A3000E0000000000000000000000000000001E
:1021B300B417050800000000000000000000000044
:1021C30000000000C41705080D0000000000000017
:1021D300A00C012000000000CC1705080A00000035
:1021E300000000008DF3012000000000D81705084F
:1021F3000A0000000000000095F301200000000029
:10220300E01705080A000000000000009DF301200C
:1022130000000000E81705080800000000000000A7
:10222300940C012000000000F017050804000000D2
:10223300EDD7010800000000000000009810050819
:102243000200000041D80108010000000000000066
:10225300A4100508010000000000000000000000B9
:1022630000000000000000000E000000000000005D
:102273000000000000000000FC170508000000003B
:1022830000000000000000000000000030100508FE
:10229300000000000000000000000000000000003B
:1022A3001018050808000000000000003C0D012084
:1022B30000000000181805080800000000000000D6
:1022C300300D012000000000201805080800000060
:1022D30000000000240D012000000000281805085C
:1022E3000800000000000000180D0120000000009D
:1022F3003018050808000000000000000C0D012044
:10230300000000004018050808000000000000005D
:10231300000D01200000000054180508080000000B
:1023230000000000F40C01200000000068180508FC
:102333000800000000000000E80C0120000000007D
:102343007C1805080800000000000000DC0C0120D8
:1023530000000000901805080800000000000000BD
:10236300D00C0120000000009C18050808000000A4
:1023730000000000C40C012000000000A81805089C
:102383000800000000000000B80C0120000000005D
:10239300B01805080800000000000000AC0C012084
:1023A30000000000BC1805080200000041D8010825
:1023B3000200000000000000A41005080100000056
:1023C300000000000000000000000000000000000A
:1023D3000E000000000000000000000000000000EC
:1023E300C8180508000000000000000000000000FD
:1023F30000000000DC1805080800000000000000D1
:10240300D80D012000000000EC18050808000000AA
:1024130000000000CC0D012000000000FC1805089E
:102423000800000000000000C00D012000000000B3
:102433000C1905080800000000000000B40D01207D
:10244300000000001C19050808000000000000003F
:10245300A80D0120000000002C1905080800000049
:10246300000000009C0D0120000000003C1905083D
:102473000800000000000000900D01200000000093
:10248300481905080800000000000000840D012021
:1024930000000000581905080800000000000000B3
:1024A300780D0120000000006819050808000000ED
:1024B300000000006C0D01200000000074190508E5
:1024C3000800000000000000600D01200000000073
:1024D300801905080800000000000000540D0120C9
:1024E300000000008C19050808000000000000002F
:1024F300480D0120000000009810050802000000AC
:1025030041D801080100000000000000A4100508E4
:1025130001000000000000000000000000000000B7
:10252300000000000E00000000000000000000009A
:1025330000000000981905080000000000000000DA
:10254300F705012000000000A41905080B00000096
:1025530000000000F80E012000000000B419050877
:102563000B00000000000000EC0E01200000000042
:10257300C01905080B00000000000000E00E012058
:1025830000000000D01905080B0000000000000047
:10259300D40E012000000000DC1905080B00000028
:1025A30000000000C80E012000000000F01905081B
:1025B3000B00000000000000BC0E01200000000022
:1025C300001A05080B00000000000000B00E0120F7
:1025D300000000000C1A05080B00000000000000BA
:1025E300A40E012000000000181A05080B000000CB
:1025F30000000000980E012000000000241A0508C6
:102603000B000000000000008C0E01200000000001
:10261300301A05080B00000000000000800E0120A6
:10262300000000003C1A05080B0000000000000039
:10263300740E012000000000481A05080B0000007A
:1026430000000000680E012000000000541A050875
:102653000B000000000000005C0E012000000000E1
:10266300601A05080B00000000000000500E012056
:10267300000000006C1A05080700000000000000BD
:10268300480E012000000000741A0508070000002E
:1026930000000000400E012000000000801A050821
:1026A3000B00000000000000340E012000000000B9
:1026B3008C1A05080B00000000000000280E012002
:1026C30000000000981A05080B000000000000003D
:1026D3001C0E012000000000A41A050808000000D9
:1026E30000000000100E012000000000B41A0508CD
:1026F3000D00000000000000040E01200000000097
:10270300C41A05080700000000000000FC0D0120AA
:1027130000000000D41A05080700000000000000B4
:10272300F40D012000000000E41A05080700000072
:1027330000000000EC0D012000000000F41A050861
:102743000700000000000000E40D0120000000006D
:10275300981005080200000041D80108010000009C
:1027630000000000A41005080100000000000000A4
:102773000000000000000000000000000E00000048
:10278300000000000000000000000000081B050816
:102793000000000000000000000000000000000036
:1027A3001C1B05080800000000000000700F01203A
:1027B300000000002C1B05080800000000000000BA
:1027C300640F0120000000003C1B05080800000006
:1027D30000000000580F0120000000004C1B0508FA
:1027E30008000000000000004C0F01200000000062
:1027F3005C1B05080800000000000000400F0120DA
:1028030000000000701B0508080000000000000025
:10281300340F012000000000801B050807000000A2
:10282300000000002C0F012000000000981B050889
:102833000700000000000000240F0120000000003A
:10284300B01B050807000000000000001C0F01205A
:1028530000000000C41B0508070000000000000082
:10286300140F012000000000D41B0508070000001E
:10287300000000000C0F012000000000E81B050809
:102883000700000000000000040F0120000000000A
:10289300981005080200000041D80108010000005B
:1028A30000000000A4100508010000000000000063
:1028B3000000000000000000000000000E00000007
:1028C300000000000000000000000000F81B0508E5
:1028D3000000000000000000F405012000000000DB
:1028E300081C05080B000000000000003410012044
:1028F30000000000141C05080B000000000000008D
:102903002810012000000000201C05080B00000017
:10291300000000001C100120000000002C1C050812
:102923000B00000000000000101001200000000058
:10293300381C05080B0000000000000004100120F3
:1029430000000000441C05080B000000000000000C
:10295300F80F012000000000501C05080B000000C8
:1029630000000000EC0F0120000000005C1C0508C3
:102973000B00000000000000E00F01200000000039
:10298300681C05080B00000000000000D40F0120A4
:1029930000000000741C0508070000000000000090
:1029A300CC0F012000000000801C05080700000078
:1029B30000000000C40F0120000000008C1C05086B
:1029C3000700000000000000BC0F01200000000011
:1029D3009C1C05080700000000000000B40F012044
:1029E30000000000AC1C0508080000000000000007
:1029F300A80F012000000000B41C05080700000018
:102A030000000000A00F012000000000C01C05080A
:102A13000D00000000000000940F012000000000E2
:102A2300D01C050807000000000000008C0F0120E7
:102A330000000000DC1C0508070000000000000087
:102A4300840F012000000000EC1C050806000000B4
:102A5300000000007C0F0120000000009810050812
:102A63000200000041D8010801000000000000003E
:102A7300A410050801000000000000000000000091
:102A830000000000000000000E0000000000000035
:102A93000000000000000000FC1C0508000000000E
:102AA30000000000F405012000000000141D0508CB
:102AB3000300000051D60108881001200000000027
:102AC300241D0508070000000000000080100120FD
:102AD300000000002C1D0508070000000000000096
:102AE3007810012000000000341D050807000000D5
:102AF300000000007010012000000000301C0508D9
:102B03000700000000000000681001200000000022
:102B13003C1C0508070000000000000060100120B5
:102B230000000000481C050807000000000000002A
:102B330058100120000000003C1D0508070000009C
:102B4300000000005010012000000000441D050893
:102B530007000000000000004810012000000000F2
:102B63004C1D050807000000000000004010012074
:102B730000000000981005080200000041D8010879
:102B83000100000000000000A4100508010000007F
:102B93000000000000000000000000000000000032
:102BA3000E00000000000000000000000000000014
:102BB3000000000001A6010894100120B3EC0120DD
:102BC3002C0000003CC80408B2EC012000C801003E
:102BD300B0EC0120E803D007010000005354524930
:102BE30058463130000000004DEC01200003010085
:102BF3004CEC01200003010041A5010811A50108C7
:102C030070110120CDA4010881A401081012012034
:102C130089A5010871A50108D8120120E5A30108BF
:102C230091A30108F815012029AC0108F9AB0108AB
:102C3300E816012015A60108B5D30108B017012035
:102C4300DDA101080000000014180120C9D7010804
:102C53008DAC0108F018012081A7010819A701080C
:102C6300B819012049A80108E9A70108201B012080
:102C730065A90108B1A90108741C01207BEE01209C
:102C830001060100A5A601083DA60108CC1E0120EE
:102C9300A9A80108E5D301080C200120E5A9010832
:102CA300A5D40108D821012066EE0120010301000B
:102CB300541D050800000000000000000000000093
:102CC30000000000601D050808000000000000006F
:102CD3001023012000000000681D05080700000004
:102CE300000000000823012000000000781D0508F3
:102CF3000D00000000000000FC2201200000000085
:102D0300841D05080300000051D60108F0220120AC
:102D130000000000981005080200000041D80108D7
:102D23000100000000000000A410050801000000DD
:102D33000000000000000000000000000000000090
:102D43000E00000000000000000000000000000072
:102D53008C1D0508000000000000000000000000BA
:102D6300000000009C1D05080A0000000000000090
:102D73003407050800000000A41D05080A00000030
:102D830000000000E30E050800000000AC1D05086C
:102D93000A00000000000000B2EF01200000000064
:102DA300B41D05080A000000000000001C230120D8
:102DB30000000000A410050801000000000000004E
:102DC3000000000000000000000000000E000000F2
:102DD300000000000000000000000000BC1D05080A
:102DE30000000000000000000000000000000000E0
:102DF300C81D05080300000051D601085023012017
:102E030000000000D41D05080300000051D601088E
:102E13004423012000000000DC1D0508030000001E
:102E230051D601083823012000000000E41D0508E5
:102E330005000000000000004BEC01200000000032
:102E4300EC1D0508070000000000000030230120EE
:102E530000000000F81D0508070000000000000046
:102E6300282301200000000098100508020000003C
:102E730041D801080100000000000000A41005086B
:102E8300010000000000000000000000000000003E
:102E9300000000000E000000000000000000000021
:102EA30000000000041E05080000000000000000F0
:102EB3000000000000000000181E050803000000C9
:102EC30051D601088C23012000000000241E0508B0
:102ED3000300000051D601081C040120000000007B
:102EE3002C1E05080300000051D601088023012091
:102EF30000000000341E05080300000051D601083D
:102F03007423012000000000040D050803000000E5
:102F130051D6010868230120000000003816050877
:102F23000300000051D601085C23012000000000CB
:102F3300981005080200000041D8010801000000B4
:102F430000000000A41005080100000000000000BC
:102F53000000000000000000000000000E00000060
:102F6300000000000000000000000000401E0508F3
:102F7300000000000000000000000000000000004E
:102F8300501E0508070000005DD50108E823012055
:102F9300000000005C1605080300000051D601087C
:102FA300DC230120000000005C1E05080300000074
:102FB30051D60108D023012000000000641E05083B
:102FC3000300000051D60108C423012000000000C3
:102FD3006C1E05080700000041D50108BC23012031
:102FE30000000000B80C05080300000051D60108DA
:102FF300B023012000000000781E05080300000034
:1030030051D60108A423012000000000841E0508F6
:103013000300000051D6010898230120000000009E
:10302300981005080200000041D8010801000000C3
:1030330000000000A41005080100000000000000CB
:103043000000000000000000000000000E0000006F
:10305300000000000000000000000000D1A50108EE
:10306300A1A50108F023012059AC010800000000CC
:10307300902401205DA4010839A401081C25012026
:103083000000000000000000E4250120A1AA0108BF
:1030930079D50108AC2601208C1E0508000000002C
:1030A300000000000000000000000000981E05085A
:1030B3000300000051D60108CC27012000000000C6
:1030C300A01E05080300000051D60108C0270120F7
:1030D30000000000780905080300000051D601082C
:1030E300B427012000000000AC1E05080300000007
:1030F30051D60108A827012000000000B81E0508CA
:103103000300000051D601089C27012000000000A5
:10311300C01E05080200000041D80108000000009D
:1031230000000000981005080200000041D80108C3
:103133000100000000000000BC18050802000000A8
:1031430041D8010802000000000000000000000058
:103153000E0000000000000000000000000000005E
:1031630036EC012088136F170100000038EC0120B2
:1031730088136F1700000000C81E05080000000038
:10318300000000000000000000000000D81E050839
:103193000800000000000000AC280120040000002B
:1031A300E41E05080800000000000000A02801201C
:1031B30000000000FC16050804000000C9D1010846
:1031C3000000000000000000A4100508010000003A
:1031D30000000000000000000000000000000000EC
:1031E3000E000000000000000000000000000000CE
:1031F30034EC012088136F17010000007CE20120EA
:1032030088136F170000000021A3010800000000CD
:10321300B828012031F3012001000000F0C80408A0
:103223007EE2012001000000FCC8040874E20120D2
:103233000200000004C904084267012000000000E6
:1032430000000000406701200000000000000000B3
:103253003E67012000000000000000003C670120E1
:1032630000000000000000003A6701200000000099
:10327300000000003867012000000000000000008B
:10328300E4030120000000000000000033EC0120F3
:103293000200000010C90408201F050800000000F8
:1032A300000000000000000000000000D81E050818
:1032B30008000000000000003C2901200400000079
:1032C300E41E05080800000000000000302901206A
:1032D30000000000FC16050804000000F1A201082C
:1032E3000000000000000000A41005080100000019
:1032F30000000000000000000000000000000000CB
:103303000E000000000000000000000000000000AC
:10331300301F05080000000000000000000000004E
:1033230000000000401F05080D00000009D301083C
:103333006C290120040000004C1F05080D0000004B
:1033430049A301086029012004000000581F050853
:103353000D000000CDD20108542901200000000017
:10336300641F05080300000061AD0108482901201E
:1033730008000000701F05080300000051D6010873
:10338300702C012000000000A410050801000000BB
:10339300000000000000000000000000000000002A
:1033A3000E0000000000000000000000000000000C
:1033B300901105080000000000000000000000005C
:1033C300000000002A0F050804000000E1D10108F5
:1033D3000000000000000000A41005080100000028
:1033E30000000000000000000000000000000000DA
:1033F3000E000000000000000000000000000000BC
:10340300C41F0508000000000000000000000000C9
:1034130000000000E40705080D00000000000000A4
:10342300CC29012004000000D41F05080800000077
:1034330000000000C029012004000000E01F05086F
:103443000800000000000000B4290120040000006F
:10345300E81F05080800000000000000A82901205B
:1034630004000000F01F0508080000000000000031
:103473009C29012004000000F81F05080800000033
:10348300000000009029012004000000002005082E
:10349300080000000000000084290120040000004F
:1034A300082005080800000000000000782901201A
:1034B30004000000A4100508010000000000000043
:1034C3000000000000000000000000000E000000EB
:1034D30000000000000000000000000009A3010834
:1034E30000000000D82901200000000000000000B7
:1034F300502A01200000000000000000F02A0120F3
:103503007AE20120040000001CC9040878E20120CB
:10351300E0150C170000000077E20120080000000E
:1035230038C0040876E201200500000030C9040811
:103533000000000000000000402B012001FFFF00FD
:103543006A00D601FFFFFFFF0000803F000000007C
:1035530000000000000000000000803F00000000A9
:1035630000000000000000000000803F0000000099
:1035730000000000000000000000803F04F1040888
:10358300050804000000000030C9040838C004081E
:103593001CC90408000000000000000030F104080A
:1035A30005080A000000000030C9040838C00408F8
:1035B300F0C704080000000000000000010102FF42
:1035C300FF000000000000000011022008000000BE
:1035D30000000000F010022008000000A58A000887
:1035E300998A0008618A0008758A0008198A000808
:1035F300058A0008F189000851B3000885B2000864
:10360300BDAE000800000000518B0008B18B00081C
:103613007D8B000800000000000000000000000097
:10362300318B0008418B0008218B0008118B0008A7
:103633005DA40008C9880008458800082988000897
:10364300FF000000C9B200085DB2000811B1000814
:10365300000000000000000085AE000811B0000863
:10366300000000000000000000000000018B0008C3
:10367300F18A0008E18A0008D18A00082942040877
:1036830005D1030801D10308FDD00308C1E20308F3
:10369300F9D00308F5D003085CFC0408010000001E
:1036A300B00100000200000009000000FF0000005C
:1036B300F42D0120000000000000000000000000C5
:1036C30000000000000000000000000000000000F7
:1036D30000000000000000000000000000000000E7
:1036E30000000000000000000000000000000000D7
:1036F30000000000000000000000000000000000C7
:1037030000000000000000000000000000000000B6
:0437130000000000B2
:10371700C4080508CC08050800000000D5590308AF
:10372700A086010004000000000000000000000067
:103737000000000000000000000000000000000082
:1037470000000000C4080508D408050800000000B0
:10375700F5CB0308E80300000400000000000000A8
:103767000000000000000000000000000000000052
:1037770000000000000000005C160508DC080508D2
:103787007D220000810B00007D0000000700000083
:103797000000000000000000000000000000000022
:1037A700000000000000000000000000E408050819
:1037B700000000000000000059240408E80300008E
:1037C70005000000000000000000000000000000ED
:1037D70000000000000000000000000000000000E2
:1037E700E8080508000000000000000081C3020887
:1037F700E8030000050000000000000000000000D2
:1038070000000000000000000000000000000000B1
:1038170000000000F408050800000000052B02085E
:1038270061F603086A1800000500000000000000A8
:103837000000000000000000000000000000000081
:103847000000000000000000A0570508000000006D
:1038570000000000292E04081027000001000000C6
:103867000000000000000000000000000000000051
:10387700000000000000000000000000F808050834
:103887000000000000000000F9CB0308E803000077
:10389700050000000000000000000000000000001C
:1038A7000000000000000000000000000000000011
:1038B7000409050800000000000000002D8F030820
:1038C700204E000003000000000000000000000080
:1038D70000000000000000000000000000000000E1
:1038E70000000000140905080000000000000000A7
:1038F700118D0308204E00000300000000000000A7
:1039070000000000000000000000000000000000B0
:103917000000000000000000240905080000000066
:10392700000000009DD60308400D030003000000BF
:103937000000000000000000000000000000000080
:103947000000000000000000000000003409050826
:103957000000000000000000559603081027000033
:10396700010000000000000000000000000000004F
:103977000000000000000000000000000000000040
:103987003C0905080000000000000000BDEE01082A
:1039970010270000030000000000000000000000E6
:1039A7000000000000000000000000000000000010
:1039B70000000000400905080000000000000000AA
:1039C70089390208A08601000100000000000000FC
:1039D70000000000000000000000000000000000E0
:1039E7000000000000000000480905080000000072
:1039F70000000000555A0308A861000001000000FC
:103A070000000000000000000000000000000000AF
:103A17000000000000000000000000005409050835
:103A27000000000000000000BD0A0208A086010097
:103A3700010000000000000000000000000000007E
:103A4700000000000000000000000000000000006F
:103A5700600905080000000000000000E95E030897
:103A6700A00F00000100000000000000000000009F
:103A7700000000000000000000000000000000003F
:103A8700000000006C0905080000000000000000AD
:103A970031C40108102700000100000000000000E9
:103AA700000000000000000000000000000000000F
:103AB7000000000000000000780905080000000071
:103AC70000000000E99001081A4100000100000011
:103AD70000000000000000000000000000000000DF
:103AE7000000000000000000000000007C0905083D
:103AF7000000000000000000612F010810270000EF
:103B070001000000000000000000000000000000AD
:103B1700000000000000000000000000000000009E
:103B2700880905080000000000000000C1D901084D
:103B37001A41000001000000000000000000000022
:103B4700000000000000000000000000000000006E
:103B5700000000008C0905080000000000000000BC
:103B670055670108400D0300000000000000000039
:103B7700000000000000000000000000000000003E
:103B87000000000000000000940905080000000084
:103B970000000000115A0308400D03000000000058
:103BA700000000000000000000000000000000000E
:103BB7000000000000000000000000009C0905084C
:103BC70000000000000000006DFC010850C3000069
:103BD70003000000000000000000000000000000DB
:103BE70000000000000000000000000000000000CE
:103BF700A80905080000000000000000898C0308E0
:103C070040420F000000000000000000000000001C
:103C1700000000000000000000000000000000009D
:103C270000000000B40905080000000000000000C3
:103C3700D95C030850C3000000000000000000002A
:103C4700000000000000000000000000000000006D
:103C570000000000000000009D2000009D200000E3
:1080000070B41C4D0646046804E02A68521AB2F5A2
:10801000805F25D8A36913F02003F6D01022202317
:10802000E261E361A3699A0701D50023A362A36912
:10803000DB0710D5636804250F4A20210120134077
:1080400000226360756486F8402086F8411086F847
:10805000422070BC7047A36943F00103A361E9E7C4
:108060002022032086F8403086F8412086F84230EE
:1080700070BC7047582E012000E800FE70B5134E0A
:1080800004460D460AE09B69DB0602D5FFF7B8FF00
:10809000C8B933685B1BB3F5805F07D823682946EE
:1080A00020469A699207EED5002070BD636C2021AE
:1080B000002203200B4384F84020636484F84110BD
:1080C00084F8422070BD012070BD00BF582E0120F1
:1080D0002DE9F04F022389468A462DED108B99B089
:1080E000DFEDCABA14930346169004331592179322
:1080F0004FEADA06169DDDF85CC04FEACA0305EBCD
:1081000046111396F0004FF0000B01EB06143701F7
:108110000390A6EB86020194049706EB460E04EB4F
:10812000C202041D381D06EB86072C44C6EBC608A8
:1081300002972844029D02EB46174FEAC808ED005B
:1081400001EBC60602954FEA0E1505954FEACE05DE
:108150000695139D4FEA451E019D95ED007AD34487
:1081600092ED005AD7ED004AD945D1ED006A50EDA5
:10817000013A35EE241AD6ED002A1CED016A73EEA1
:10818000875A54ED017A33EEC73A36EE264A77EE37
:10819000A21A36EE666A77EEE27A74EE256A71EE1E
:1081A000812A77EE633A37EEC57A36EEA22A77EE69
:1081B000E47A76EEE26A0CED012A37EE247A77EE65
:1081C000857AD1ED018AC1ED006A74EE655A96EDAB
:1081D000015AB0EE460A94ED004AA7EE2B6AD2EDA2
:1081E000010AE7EEAB3A74EE456AD7ED012AA7EE35
:1081F0006B0A9CED007AD5ED014A34EE054A37EE64
:10820000689A90ED005A36EEE02A76EEE26A30EE99
:10821000A28A32EE222A76EEA06AF0EE492A75EEA4
:10822000640A37EE287A75EE249AE2EE6B2A74EE31
:10823000C54AF0EE608AB0EE40AAE6EEAB4AE6EE42
:10824000AB8AA6EEEBAAF0EE496AB0EE629A37EE80
:10825000695AE2EE2B6AB0EE432A74EE08AAA7EE42
:10826000EB9AA7EEAB2A77EE297A35EE617A75EEB6
:10827000C89A35EE415A75EEC45A37EEAABA77EE6F
:10828000EA7A37EE011A8CED00BA36EE287AC1EDA3
:10829000017A39EE844A76EEC27A194475EE885A2C
:1082A0009C4435EE215A00ED014A70EE8A0A70EEC8
:1082B000244AC5ED005A36EE686A80ED001A72EE67
:1082C000A33A85ED015A33EE093A04ED017A72EED4
:1082D000266A87ED006A1D44C6ED000A1844C2ED07
:1082E000004AC4ED007A1C44C7ED016A1F44C6ED84
:1082F000013A1E4482ED013A1A443FF62EAF139A1A
:10830000072A40F2C681039A0EF1080E169F08F163
:1083100008000832029E059D4FF0000894463A4638
:10832000083608357244069C0499D346109207EB30
:108330000C0208340C310F92BA190E927A190D9270
:108340003A190C923A180B927A18099207F10C021A
:108350000A9201220892149ADDF824C09044159ADA
:108360000A9F02EBC8020B9EA8EB880E0C9D02EB45
:10837000C80192ED00BA0D9C01EBC802D1ED00AA34
:108380000E9802EBC80192ED00AA01EBC802D1EDF4
:10839000009A02EBC80192ED009A01EBC802D1ED00
:1083A000008A0F9902EB0E1E92ED008A109A0EEBD6
:1083B000C80ADEED017A1192CDED047A0AEBC8020B
:1083C000DAED017A02EBC80A1291CDED057AD2ED11
:1083D000017A0AEBC802DDF820E0CDED017ADAED92
:1083E000017A02EBC80ACDED067AD2ED017A0AEBEA
:1083F000C802CDED027ADAED017ACDED077AD2ED41
:10840000017ADDE91121CDED037A01E0F304353F76
:1084100017ED017ADE44D2ED007A94ED005AF14571
:10842000D5ED006A37EE274AD0ED004A77EE677A3D
:108430001CED016A96ED007A91ED001A76EE055A70
:1084400036EE872A97ED00DA71EE24EA76EE453AA9
:1084500074EE252A31EE641A35EE466A3EEE825AF3
:1084600074EE655A31EE664A72EE854A31EE471A6D
:10847000B0EE67CA47ED014A34EE077AD1ED014A02
:1084800031EE261AD0ED016A72EEC52A95ED014A49
:10849000A7EE6BCA74EEE60A96ED010AE7EE2B7AB8
:1084A00092ED017A94ED015A74EEA64A3DEE473AF8
:1084B000DCED006A70EEC4CA70EEC00AB0EE43EAAA
:1084C0007CEE80CA74EE001A70EE840AACEEEBEA21
:1084D00036EEC54A3DEE077AB0EE63DA36EE850A2F
:1084E000ACEEAB3AF0EE4EDAA1EE2BDAA1EE2B6A4F
:1084F000E1EE6BDA75EE666AB0EE441AF0EE4CCA45
:1085000037EE405AA0EEAB1AE0EEEBCAE0EEAB6AF3
:1085100037EE007A74EEA10A35EEE1FA75EEE45A10
:1085200075EE6EFA37EE600A71EEA55ADDED061AA9
:1085300035EE425A7FEE244A3FEE822A22EEE1FADD
:1085400061EE80FADDED051A3EEE855A3EEE066AD2
:1085500073EEAD3A21EE82EA73EE4DDA3DEE033A68
:1085600024EEE1DADDED071A34EE2C4A7CEE266AC1
:1085700061EE85CA25EEE1CADDED041A77EE81EAE7
:1085800077EEC17AE9EEA2FADDED032AA9EE80FAD0
:108590009DED030AAAEEA4EADDED014AAAEE82DA15
:1085A0009DED012AE8EEA5CADDED025AA8EE85CAC6
:1085B0009DED025A21EEAD1A62EE832A6EEEE11AAB
:1085C00027EEC00A64EEA34A26EEC22A65EE865A5A
:1085D00024EE455AABEE2E1AEBEE2D1AE8EE272AC2
:1085E000A8EE030AEAEE264AAAEE232AE9EE045A86
:1085F000A9EE065A37EE207A87ED007A1F44C2EDC5
:1086000000FA82ED01FA1A440CED01EA8CED00DA71
:108610009C44C4ED00CA84ED01CA1C4481ED001ADB
:10862000C1ED011A1944C6ED002A86ED010A1E4467
:10863000C0ED005A80ED015A1844C5ED004A85EDA1
:10864000012A1D443FF6E4AE1099089A0831013220
:1086500010910F99089208310F910E9908310E91DF
:108660000D9908310D910C9908310C910B99083135
:108670000B910A9908310A910999083109911399C6
:1086800091427FF468AE149B8A46DB009BB2149340
:108690002EE519B0BDEC108BBDE8F08F114A124BDE
:1086A000B2F92620DFED116A07EE902A93ED127AD7
:1086B000F8EEE77AB0EEC77A77EEE67AF4EEC77AAC
:1086C000F1EE10FA0ADDD3F8D01344F62062401A16
:1086D000904205DD002283F8D4237047C3F8D0030D
:1086E000704700BF582E0120500500200000C842EE
:1086F000174BDFED186AD3ED097A93ED107A67EE28
:10870000A67AB0EEC77AF4EEC77AF1EE10FA08DD79
:1087100093ED117AB0EEC77AF4EEC77AF1EE10FA63
:1087200002DCC3F8C803704793ED127AB0EEC77A43
:10873000F4EEC77AF1EE10FAF3DDD3F8C8134CF279
:108740005032401A9042EEDD002283F8CC2370476D
:10875000500500200008ED46037870B433B302469C
:10876000C0F10105531912F8014FDBB2002CF9D109
:1087700001335B00DAB20F4C03250B8084F85020E4
:1087800084F85150017879B1022300265A1CE5186B
:10879000023354FA82F285F85010DBB282F850604E
:1087A00010F8011F0029F1D170BC70470222134656
:1087B000E1E700BF582E012030B5EFF3118180238F
:1087C00083F312880A4AD2F85031D2F85441D2F8D1
:1087D0005001D2F85451CAB282F31188013BA84229
:1087E00094BF4FF4006000201B1B184430BD00BF35
:1087F000582E0120012380F84D307047014BD3F8EB
:1088000058017047582E012001207047014BC3E9E1
:1088100057217047582E0120014BC3E95921704759
:10882000582E01207047704710B4054B04460A6863
:108830000020C3F86C415DF8044BC3F85821704721
:10884000582E0120212870B505D0222829D02028B3
:1088500010D0002070BD0029FBD0072AF9D1184B99
:1088600018791C685A799B79087100200C604A714C
:108870008B7170BD0029ECD0072AEAD11148104B4A
:108880000C680E794D79D0F8602189791C601E71D1
:108890005D719971002ADCD02146D0F85C019047C7
:1088A000D7E70029D5D0022AD3D1064AD2F86831B9
:1088B000002BCED00988D2F864019847C9E700BFE1
:1088C00000000120582E01200020704770B40E06D1
:1088D000D0F8304241D41C20C1EBC105002600FB7A
:1088E000014004EB850500F5FC7085F8F811C5F82A
:1088F000003285F8FB2185F8F961022A01D10023B5
:10890000037194F8B833012B18D00121236884F83F
:10891000B81342788A4234D0067803F5006503F52F
:108920003063EA69B14003EB461342EA0141E96171
:108930001A68120405D5002384F8B833002070BCEF
:10894000704782681D68C2F30A02C0781B492A4337
:1089500042EA804211431960EDE701F07F011C20DB
:108960000126C1EBC10500FB014004EB8505383051
:1089700085F838102B6485F83B20E98785F8396045
:10898000BBE7017803F5006503F51063EE698A40E3
:1089900003EB411392B23243EA611A681504CAD458
:1089A00082681E68C2F30A02C5780448324342EA6C
:1089B000854242EA815210431860BCE700800010F3
:1089C000F0B4002452004E1C2746030FB0F1204F94
:1089D0004FEA001003F1300503F1370334BF0D55A2
:1089E0000B5537550234A242EFD1F0BC704700BF9F
:1089F000024808B5FFF7B0FE014808BD9C0605080F
:108A0000A82E0120024808B5FFF7A6FE014808BDC0
:108A1000AC060508A82E01200B481A220B4B006853
:108A20001B680A80C01801D109487047094B082209
:108A3000094910B51C68FFF7C3FF04220749204607
:108A4000FFF7BEFF024810BD107AF01F187AF01F22
:108A500008000120147AF01F0A0001201A000120EA
:108A6000024808B5FFF778FE014808BDB8060508BA
:108A7000A82E012008B520B90448FFF76DFE044870
:108A800008BD0448FFF768FE014808BDC406050894
:108A9000A82E0120E8060508042301480B80704732
:108AA00024000120074A084B084830B414681225F6
:108AB00003F114020D80844214BF1846104630BCE6
:108AC000704700BF40400240280001201010DDDD4B
:108AD00003460A2201481A80704700BF5000012057
:108AE0000346202201481A80704700BF5C00012025
:108AF0000346202201481A80704700BF7C000120F5
:108B00000346202201481A80704700BF9C000120C4
:108B100003460A2201481A80704700BFBC000120AA
:108B20000346432201481A80704700BFC800012055
:108B30000346432201481A80704700BF0C01012000
:108B40000346432201481A80704700BF50010120AC
:108B5000D0F81C3283B110B5D0F8184294F8000256
:108B6000FF2807D09B68214694F801229847FF23ED
:108B700084F80032002010BD0020704701F00F0182
:108B8000D0F83022C1EBC10102EB810238B5D0F838
:108B90001832D0F81C52B2F8104203F50371EA689B
:108BA000D3F80402C3F80C429047002038BD00BF40
:108BB000D0F818321BB10020C3F81402704702200D
:108BC000704700BF08B5D0F814321BB11B68984736
:108BD00000B908BD022008BD026C03463AB11A6C08
:108BE000D20608D50022012083F83C207047426459
:108BF00080F83C20F3E71A6C4B494C4811401A6846
:108C000041F00201F0B419644168494D21F440314A
:108C1000416041685C68214341605168186921F4F2
:108C20008071D3F808C0DF68516054689E6A44EAD6
:108C30000024AE425460546824F04074546050687C
:108C400040EA0C005060906820F4006090609168E9
:108C500041EA0701916059D09068DC6A20F07060A9
:108C6000906091680E439660906820F0405090604C
:108C700091682143916090689D6920F002001C6A10
:108C80009060916841EA450191605168002C46D09E
:108C900041F400614FF460405160516821F460413B
:108CA000516090FAA0F0596AB0FA80F05468013926
:108CB000814021435160D06A0026DD6920F47000B4
:108CC000D3F830C0691E5F69D0623046D56A45EA84
:108CD0000155D562956825F400759560946844EA5D
:108CE0004C249460946824F480649460916841EA10
:108CF000872191605E641A6C22F0030242F0010247
:108D00001A64002283F83C20F0BC7047916821F07F
:108D100070619160916821F040519160ABE721F45E
:108D200000615160C7E700BFFDEEFFFF0023014077
:108D30000100000F2DE9F843884600294FD047185D
:108D4000461E284C802507F1FF39EFF3118185F38A
:108D50001288D4F85021C9B2D4F85401D4F8503153
:108D6000D4F854C181F31188634594BF4FF4006374
:108D70000023121A1344012B1AD1012034F098FF5A
:108D8000EFF3118185F31288D4F85021C9B2D4F8D9
:108D90005401D4F85031D4F8547181F31188BB4296
:108DA00094BF4FF400630023121A1344012BE4D044
:108DB000EFF3118285F31288D4F85431D2B216F849
:108DC000011F234483F87011D4F854310133C3F3E5
:108DD0000A03C4F8543182F311884E45B5D1404698
:108DE000BDE8F883582E0120F8B5002390F84C50C8
:108DF00080F84C30CDB10F4E96F86C2B032A16D16B
:108E0000D6F8A47B00F1380429462046FFF792FFEC
:108E1000D6F8A43B2D1A0444DB1B322B01D8002DBD
:108E2000F2D1B5FA85F04009F8BD0120FCE71846FB
:108E3000FAE700BF582E0120002280F84D20D3E72A
:108E400090F84C20531C0244DBB280F84C3082F87E
:108E5000381090F84D200AB1132B00D9C4E77047A1
:108E6000F8B50B4E0D46144696F86C3B032B0ED10D
:108E7000D6F8A47B002C0ADD21462846FFF75AFFCE
:108E8000D6F8A43B241A0544DB1B322BF2D9F8BDDB
:108E9000582E012070B5444C0646D4F8B43B0BB1B3
:108EA0001D22DA8018460D2135F00CF9D4F8B40BE8
:108EB00035F020F994F8BE3B013B5BB2032B71DC2B
:108EC0003A4AD82101FB0323D3F8A4060223202128
:108ED000C4F8AC0B84F8A83B3EF0EAF840210A2025
:108EE0003BF09CFBFF218A203BF098FB94F8BC3BB5
:108EF000C0F3801200F04000012B84F8BF2B46D055
:108F0000022B2B4D3FD0D3B394F8C03B1A2B07D183
:108F1000B5F89431A4F8C46BA4F8C62BA4F8C83BE8
:108F2000B5F89411D4F8AC0B3EF0C2F8B5F8941132
:108F3000D4F8AC0B3EF0BCF8D4F8B40B35F0D4F850
:108F4000022100203BF06AFBD4F8B40B35F0D2F8D4
:108F5000D4F8AC0B08213EF0ABF894F8D12B94F880
:108F6000D23B0120C2F1200294F8D01BC3F11003C0
:108F700084F8D32B84F8D43B84F8CC1B70BD202319
:108F8000A5F89431C0E71023A5F89431BCE726B9C1
:108F90001023074DA5F89431B6E7002814BF10231D
:108FA0002023F6E7002091E7582E012050050020ED
:108FB000000001202DE9F047344C002294F8D8330A
:108FC00094F8D913013384F89826DBB2994284F8D7
:108FD000D8332DED048B82B009D094F87035002B76
:108FE00041F02C8202B0BDEC048BBDE8F087284F25
:108FF00094EDF78A97F8C05BB7F9C80B0F2D94F87A
:10900000EC6384F8D82300F0D78694EDF87A06F163
:109010002602D4EDF97A04EB860327EE087A04EBF6
:10902000820267EE887A83EDFC7A06F14603C2ED90
:10903000F67A0022D4EDFA7A04EB8303C4F8E02335
:1090400027EE888AC4F8E42383EDF68AC4F8E8237F
:10905000731C0C22A7F8C80B03F01F0384F87025BB
:1090600084F8EC33102D00F0CF8694F8718500263B
:10907000B8F1060F00F21C86DFE818F0E4073406AA
:1090800045060C00D900EA06E10700BF50050020A4
:10909000582E0120EC4B102D1A4693ED037AD3ED98
:1090A000057AB2EC011A27EE073A67EEA73A93ED7C
:1090B000077A92ED006AD3ED097A27EE074AD3EDDD
:1090C0000B6A66EE062A93ED0D7A67EEA74AD3ED9A
:1090D0000F7A26EEA65AD3ED021A67EE075A93EDE1
:1090E000042A27EEA76AD3ED116AE1EE012A93ED77
:1090F000137AA1EEA13AD3ED157AE2EE023AD3ED5E
:10910000060A66EEA66A93ED081A27EE077AD3EDF3
:109110000A1A67EEA77A93ED0C2AA0EEA04AE1EEB8
:10912000014AD3ED0E0AA1EEA15A93ED101AE2EE18
:10913000025AD3ED121A93ED142AA0EEA06AE1EEC2
:10914000016AE2EE027AA1EEA17AB1EEE22AF1EE34
:10915000C32AB1EEE33AF1EEC43A03ED202AB1EEB0
:10916000E44A43ED1F2AF1EEC54A03ED1E3AB1EE83
:10917000E55A43ED1D3AF1EEC65A03ED1C4AB1EE35
:10918000E66A43ED1B4AF1EEC76A03ED1A5AB1EEE7
:10919000E77A43ED195A03ED186A43ED176A03EDB8
:1091A000167A93ED177AD3ED197A67EE075AD3ED55
:1091B0001B6A27EEA76A93ED1D7AD3ED1F7A66EE40
:1091C000A66AD3ED164A27EE077A93ED185A67EE92
:1091D000A77AE4EEA45A93ED1A4AA5EE056AD3EDF8
:1091E0001C4A93ED1E5AE4EE046AA4EEA47AE5EE5E
:1091F000057AB1EEE55AF1EEC65AB1EEE66AF1EE45
:10920000C76A03ED155AB1EEE77A43ED145A03ED40
:10921000136A43ED126A03ED117A01F0568094F857
:10922000718508F101085FFA88F884F8718594F86F
:10923000843A0F2B01F335800D2B04EB830103F1EE
:10924000010C01F2538003F16C0201F5B16104EBF2
:109250008202D1ED007A92EDF77AB4EE677AF1EE00
:1092600010FA05DDB5EEC07AF1EE10FA01F30780D1
:109270000020DFED767A0CF16C0204EB8202D2ED75
:10928000F76AF4EE476AF1EE10FA08DDF4EE676A69
:10929000F1EE10FA03DDF0EE667A5FFA8CF0D91C7D
:1092A00003F1020C0E29624600F3148103F16E02F1
:1092B00004EB820292EDF77AB4EE667AF1EE10FAE0
:1092C00008DDB4EE677AF1EE10FA03DDF0EE477ACE
:1092D0005FFA8CF003F16F0204EB8202D2EDF76AC1
:1092E000F4EE476AF1EE10FA07DDF4EE676AF1EE8C
:1092F00010FA02DDF0EE667AC8B2591D03F1040CD3
:109300000E29624600F3E68003F1700204EB82024C
:1093100092EDF77AB4EE667AF1EE10FA08DDB4EE6B
:10932000677AF1EE10FA03DDF0EE477A5FFA8CF01F
:1093300003F1710204EB8202D2EDF76AF4EE476AA0
:10934000F1EE10FA07DDF4EE676AF1EE10FA02DDD5
:10935000F0EE667AC8B2D91D03F1060C0E296246FA
:1093600000F3B88003F1720204EB820292EDF77A07
:10937000B4EE667AF1EE10FA08DDB4EE677AF1EE3B
:1093800010FA03DDF0EE477A5FFA8CF003F1730216
:1093900004EB8202D2EDF76AF4EE476AF1EE10FABE
:1093A00007DDF4EE676AF1EE10FA02DDF0EE667AA0
:1093B000C8B203F1090103F1080C0E29624600F35B
:1093C000898003F1740204EB820292EDF77AB4EE25
:1093D000667AF1EE10FA08DDB4EE677AF1EE10FA73
:1093E00003DDF0EE477A5FFA8CF003F1750204EBCF
:1093F0008202D2EDF76AF4EE476AF1EE10FA07DD69
:10940000F4EE676AF1EE10FA02DDF0EE667AC8B2A9
:1094100003F10B0103F10A0C0E2962465ADC03F139
:10942000760204EB820292EDF77AB4EE667AF1EE00
:1094300010FA0DDDB4EE677AF1EE10FA08DDF0EE09
:10944000477A5FFA8CF003E05C0B0020000000001C
:1094500003F1770204EB8202D2EDF76AF4EE476A79
:10946000F1EE10FA07DDF4EE676AF1EE10FA02DDB4
:10947000F0EE667AC8B203F10C01012B0A4629DC32
:1094800003F1780204EB820292EDF77AB4EE667A89
:10949000F1EE10FA07DDB4EE677AF1EE10FA02DDB4
:1094A000F0EE477AC8B203F1790204EB8202D2ED02
:1094B000F76AF4EE476AF1EE10FA09DDF4EE676A36
:1094C000F1EE10FA04DD03F10D00F0EE667AC0B2A1
:1094D00003F10E0202F16C0102F16B0304EB810C4B
:1094E00004EB83039CEDF77AD3EDF76AF4EE476A59
:1094F000F1EE10FA07D5B4EE677AF1EE10FA02DD5C
:10950000F0EE477AD0B20F2A02F1010C00F09581FB
:1095100002F16D0304EB810104EB8303D1EDF76AE3
:1095200093EDF77AF4EE476AF1EE10FA05D5B4EE52
:10953000677AF1EE10FA00F3E2860E2A02F10201D8
:1095400000F07B8101F16C0201F16B0304EB8202FC
:1095500004EB830392EDF77AD3EDF76AF4EE476AF2
:10956000F1EE10FA05D5B4EE677AF1EE10FA00F3D9
:10957000D1860F2901F1010C00F05F810CF16C0222
:109580000CF16B0304EB820204EB830392EDF77A98
:10959000D3EDF76AF4EE476AF1EE10FA05D5B4EEB2
:1095A000677AF1EE10FA00F3BF86BCF10F0F0CF1F1
:1095B000010100F0428101F16C0201F16B0304EB47
:1095C000820204EB830392EDF77AD3EDF76AF4EEAF
:1095D000476AF1EE10FA05D5B4EE677AF1EE10FAAB
:1095E00000F3AE860F2901F1010C00F026810CF189
:1095F0006C020CF16B0304EB820204EB830392ED2B
:10960000F77AD3EDF76AF4EE476AF1EE10FA05D572
:10961000B4EE677AF1EE10FA00F39C86BCF10F0FFE
:109620000CF1010100F0098101F16C0201F16B0301
:1096300004EB820204EB830392EDF77AD3EDF76A31
:10964000F4EE476AF1EE10FA05D5B4EE677AF1EE62
:1096500010FA00F393860F2901F1010C00F0ED8060
:109660000CF16C020CF16B0304EB820204EB83033C
:1096700092EDF77AD3EDF76AF4EE476AF1EE10FA5D
:1096800005D5B4EE677AF1EE10FA00F38186BCF1ED
:109690000F0F0CF1010100F0D08001F16C0201F11B
:1096A0006B0304EB820204EB830392EDF77AD3EDB4
:1096B000F76AF4EE476AF1EE10FA05D5B4EE677A70
:1096C000F1EE10FA00F370860F2901F1010C00F0A1
:1096D000B4800CF16C020CF16B0304EB820204EB1E
:1096E000830392EDF77AD3EDF76AF4EE476AF1EE71
:1096F00010FA05D5B4EE677AF1EE10FA00F35E8643
:10970000BCF10F0F0CF1010100F0978001F16C0228
:1097100001F16B0304EB820204EB830392EDF77A11
:10972000D3EDF76AF4EE476AF1EE10FA05D5B4EE20
:10973000677AF1EE10FA00F34D860F2901F1010C62
:109740007BD00CF16C020CF16B0304EB820204EB96
:10975000830392EDF77AD3EDF76AF4EE476AF1EE00
:1097600010FA05D5B4EE677AF1EE10FA00F33C86F4
:10977000BCF10F0F0CF101015FD001F16C0201F19E
:109780006B0304EB820204EB830392EDF77AD3EDD3
:10979000F76AF4EE476AF1EE10FA05D5B4EE677A8F
:1097A000F1EE10FA00F32C860F2901F1010C44D0E0
:1097B0000CF16C020CF16B0304EB820204EB8303EB
:1097C00092EDF77AD3EDF76AF4EE476AF1EE10FA0C
:1097D00005D5B4EE677AF1EE10FA00F31B86BCF102
:1097E0000F0F0CF1010128D001F16C0201F16B03A4
:1097F00004EB820204EB830392EDF77AD3EDF76A70
:10980000F4EE476AF1EE10FA05D5B4EE677AF1EEA0
:1098100010FA00F30B860E290FD1F54B93ED007A69
:1098200053ED016AB4EE667AF1EE10FA05DDB4EE9E
:10983000E77AF1EE10FA00F3C884002800F0EE8415
:10984000431E012B40F3928500F16B0200F16A0385
:1098500004EB820204EB830392EDF77A821ED3EDD0
:10986000F76AF4EEC76AF1EE10FA00F3B180012A4C
:1098700000F0AE8000F16903C21E04EB830393ED98
:10988000F77AB4EEE67AF1EE10FA00F30685012AD3
:1098900000F0038500F16803021F04EB8303D3ED9E
:1098A000F76AF4EEC76AF1EE10FA00F39180012A2C
:1098B00000F08E8000F16703421F04EB830393EDF9
:1098C000F77AB4EEE67AF1EE10FA00F3E684012AB4
:1098D00000F0E38400F16603821F04EB8303D3ED01
:1098E000F76AF4EEC76AF1EE10FA71DC012A6FD064
:1098F00000F16503C21F04EB830393EDF77AB4EE26
:10990000E67AF1EE10FA00F3C884012A00F0C5846B
:1099100000F16403A0F1080204EB8303D3EDF76ABE
:10992000F4EEC76AF1EE10FA52DC012A50D000F1D1
:109930006303A0F1090204EB830393EDF77AB4EE1D
:10994000E67AF1EE10FA00F3A884012A00F0A5846B
:1099500000F16203A0F10A0204EB8303D3EDF76A7E
:10996000F4EEC76AF1EE10FA32DC012A30D000F1D1
:109970006103A0F10B0204EB830393EDF77AB4EEDD
:10998000E67AF1EE10FA00F38884012A00F085846B
:1099900000F16003A0F10C0204EB8303D3EDF76A3E
:1099A000F4EEC76AF1EE10FA12DC012A10D000F1D1
:1099B0005F03A0F10D0204EB830393EDF77AB4EE9D
:1099C000E67AF1EE10FA00F36884022A07FE267A9E
:1099D000431C0E2B00F3CE8400F16D0100F16E02EA
:1099E00004EB810104EB8202D1EDF76A811C92ED58
:1099F000F76AB4EEE66AF1EE10FA00F32B840F2951
:109A000000F0BB8000F16F02C11C04EB8202D2EDBA
:109A1000F76AF4EEC66AF1EE10FA00F319840F2922
:109A200000F06A8400F17002011D04EB820292EDE5
:109A3000F76AF4EEC66AF1EE10FA00F10B840F2912
:109A400000F09B8000F17102411D04EB8202D2ED17
:109A5000F76AF4EEC66AF1EE10FA00F3F9830F2903
:109A600000F04A8400F17202811D04EB820292ED43
:109A7000F76AB4EEE66AF1EE10FA00F3EB830F2911
:109A80007BD000F17302C11D04EB8202D2EDF76AB4
:109A9000F4EEC66AF1EE10FA00F3DA830F2900F053
:109AA0002B8400F1740200F1080104EB820292EDB4
:109AB000F76AB4EEE66AF1EE10FA00F3CB830F29F1
:109AC0005BD000F1750200F1090104EB8202D2EDD6
:109AD000F76AF4EEC66AF1EE10FA00F3B9830F29C3
:109AE00000F00A8400F1760200F10A0104EB820220
:109AF00092EDF76AB4EEE66AF1EE10FA00F3AA838B
:109B00000F293AD000F1770200F10B0104EB820239
:109B1000D2EDF76AF4EEC66AF1EE10FA00F398831C
:109B20000F2900F0E98300F1780200F10C0104EB49
:109B3000820292EDF76AB4EEE66AF1EE10FA00F3F3
:109B400089830F2919D000F1790200F10D0104EB8E
:109B50008202D2EDF76AF4EEC66AF1EE10FA00F373
:109B600077830E2940F0C883214A92ED006AB4EE53
:109B7000E66AF1EE10FA00F36D8387FE667AC7EEAF
:109B8000878A94F8729509F1AC0A04EB8A02B2EE66
:109B9000007AF7EE007A92EDF78AC8FEC78AC8FE0F
:109BA000A78A00F16C0207EE900ADBB204EB820296
:109BB000F8EEE76A0F2B92EDF77A27EE077A66EE5A
:109BC000876A00F2078303F16C0207EE903A0128DE
:109BD00004EB8203F8EEE77A93EDF76A26EE066A65
:109BE000E6EE276A37EE067A00F2F48202E000BF62
:109BF000180B0020B5EEC07AF1EE10FA40F3FD82AA
:109C000086EE879A8C4B93ED007A29EE077AB4F8AA
:109C10008C3A07EE903AB4F8903AF8EE677AF4EEA0
:109C2000C77AF1EE10FA05DC07EE903AF8EE677AA3
:109C3000C7FEC77A814B77EEC87A04EB8A0A93EDA8
:109C4000007A28EE877AA7EE278A8AEDF78A29F02C
:109C5000E7FF0028B8BF4042C3B2142B0DD9B4F8B7
:109C6000983A07EE903AF8EEE77A87FE888ABCEEDB
:109C7000C88A18EE103AA4F8983AB9F1000F40F0EB
:109C8000D0800F2D00F00083112D40F0CA806C4B66
:109C90009FED6C0AD3ED007A28EE800AFDEEE77A9C
:109CA00017EE903AA7F8C43B3FF06AF9A7F8C60B45
:109CB00008F10108644B94F87025A3FB0813013ADE
:109CC000A8EB030184F8702503EB51039B08C3EB59
:109CD000C303A8EB030384F8713502B0BDEC048B19
:109CE000BDE8F087D4F87C25B4F8801557483EF0DD
:109CF00051F997F8C05B102D00F0F08294F871359F
:109D0000013384F87135DFF844C1B0EE006AB4F86D
:109D10007405F6EE006A6246D4F8881501380CF135
:109D20009003F2EC015AB0EE664A1031D2ED007A9F
:109D30000CEBC00277EEA77A083AB0EE677AD5EE60
:109D4000867AA5EE867A67EEA67A27EE267ACCED9D
:109D5000217A8CED207AD2ED036A0138D2ED027AB5
:109D600001F1080153ED215AA2F1080253ED224AF4
:109D700003F1080335EEE67A11ED036A37EEE45A93
:109D800077EEA47A76EEA56A51ED045AA6EE057A2E
:109D9000E5EE857AA5EEE67AE6EE267A27EE047AF7
:109DA00067EE847A03ED037A43ED047AD3D1102D64
:109DB0003AD094F871857BE794EDF80A04EB8603BA
:109DC00028EE000A83EDFC0A3FF0DAF8D4EDF97AC8
:109DD00006F1260206F1460367EE887A002104EBBD
:109DE000820204EB8303C4F8E013C2EDF67A00B2FA
:109DF000D4EDFA7AC4F8E41327EE888A83EDF68A64
:109E0000C4F8E813FFF724B933F0FAFE97F8C05B03
:109E100094F871850646102D08BFA7F8C48BFFF78C
:109E200027B9102D7FF444AF33F0EAFE801B94F87D
:109E30007185A7F8C60B3BE7D80F0020E40F002080
:109E4000DC0B00200000C84225499224DC0A0020D7
:109E500094F872350120EB49102D1A4684F8993692
:109E600003F1AC0384F8980604EB8303D3F8DC33E6
