:020000040800F2
:10000000F0FF00107590040895DE0008DDDE03089F
:1000100011910408119104081191040800000000D6
:10002000000000000000000000000000A1DE000849
:100030009DDE00080000000099DE000819D50308C5
:1000400011910408119104081191040811910408F8
:10005000119104081191040851E603087DE7030893
:1000600041E7030805E70308C9E603089D7A040889
:100070008D7A04087D7A04086D7A0408597A040898
:10008000457A0408317A0408119104081191040892
:100090001191040811910408119104088DE60308D8
:1000A0001191040851CF03081191040861CF03088E
:1000B000119104081191040841CF030851810408EB
:1000C00059810408458104084D81040811910408F0
:1000D00011910408C9D703082DD7030891D6030846
:1000E00015E60308119104088D1B010811CF0308C0
:1000F00021CF03081191040831CF03081D7A0408A9
:100100001191040811910408119104081191040837
:10011000F5D5030859D50308C5590308B159030893
:10012000097A0408F57904082D730408E1790408B4
:10013000CD79040811910408119104081191040863
:10014000119104081191040811910408A10A0108F1
:10015000B9790408A5790408917904081191040873
:10016000398104084181040811910408119104089F
:1001700011910408119104081191040811910408C7
:0801800011910408119104081B
:08018800248C040001000000BA
:1001900003010A009471002020720020000000007A
:1001A000F406000813020300EC3600202C72002035
:1001B00000000000FE060008040080000454002037
:1001C000307200200000000000000000230010003A
:1001D000DC530020B07200200000000005A00108E0
:1001E0000D003400EC520020C0720020000000001E
:1001F000D14803081300040038520020F472002094
:100200000000000004070008F6210C003C5200200A
:10021000F87200200000000008070008F5317400A3
:100220007051002004730020000000000133010819
:100230000B3014005C510020787300200000000097
:100240001407000801010400585100208C7300209D
:1002500000000000000000000001040054510020D4
:10026000907300200000000028070008020103002E
:10027000505100209473002000000000294503081D
:10028000FD011E0020510020987300200000000096
:1002900071B00308061018007C5C0020B8730020C1
:1002A00000000000FD860208FB010100185100203B
:1002B000D073002000000000C1D30308FC01090036
:1002C000E44F0020D473002000000000D1D30308C5
:1002D00002000C00B04F0020E0730020000000007E
:1002E000000000000A604A00644F0020EC73002008
:1002F000000000002C07000834001000944E00207D
:100300003874002000000000D186020811020800A5
:100310006C4E0020487400200000000076070008A2
:1003200012120400644E00205074002000000000EF
:100330007E07000818202C00384E0020547400203E
:100340000000000071BD030812200D00104E0020B7
:10035000807400200000000082070008F9010400FA
:10036000E44200209074002000000000E9B003087F
:1003700018020200E04200209474002000000000F7
:100380000000000017020B00D442002098740020E7
:100390000000000055B50308FA010200B042002039
:1003A000A474002000000000C1B60308020203008C
:1003B0001C400020A8740020000000000000000085
:1003C0000C02030008400020AC7400200000000074
:1003D00045B50308FE010900645C0020B0740020EC
:1003E0000000000031B503081B0208006C01012069
:1003F000C413012000000000DDB50308012008003F
:1004000070120120CC1301200000000090070008AA
:1004100019000500F0120120D41301200000000093
:100420009807000837001E00C8120120DC130120C5
:10043000000000009E0700081E0005004CFF002081
:10044000FC13012000000000BC0700081B00F400A2
:10045000ACFB00200414012000000000A5370108B7
:100460000E02020048050120F814012000000000DF
:10047000C20700082F00110078130120FC1401208E
:1004800000000000C407000805100600BC1301208E
:100490001015012000000000D607000826000E00FD
:1004A000281501201815012000000000DD1E01089C
:1004B0001F201C00C4FE00205C150120000000006D
:1004C000DC070008050204008001012078150120E6
:1004D00000000000F807000828101000801D01200F
:1004E000E821012000000000F19F01081400040031
:1004F00080210120F821012000000000FC070008F5
:100500000E8068011E180120FC210120000000005F
:10051000A586020809020100A41E0120642301200F
:1005200000000000000800080C20B400EE190120B3
:100530006823012000000000F944030801020500BF
:100540009A1701201C24012000000000D593010807
:10055000000205000C1C01202424012000000000E2
:1005600000000000F8210600BA280120F02E01202A
:100570000000000002080008031233009027012049
:10058000962E0120000000000808000825009600B3
:1005900024280120F02D01200000000000000000B0
:1005A00015007000282C0120082D012000000000FB
:1005B000000000002A006000C4270120A82C0120B0
:1005C000000000007D8602082C001000982C0120FD
:1005D000862E012000000000A11702082B00240035
:1005E000E42A0120C92E012000000000751702082E
:1005F0002910780070260120782D012000000000CD
:100600000000000003000100E83001209C310120BF
:10061000000000000000000010100300C0300120A6
:10062000A0310120000000003C0800081A000E0064
:100630001C300120A4310120000000004008000807
:100640001600080038330120143401200000000097
:100650004E08000807020200F03301203C3401205C
:10066000000000005608000806020C00C4330120F8
:10067000403401200000000021B7030808120900DF
:10068000483301204C34012000000000A5B50308C8
:10069000F701060042330120583401200000000019
:1006A000580800080A020A005C3201206034012068
:1006B000000000005E0800081A023C00803401209F
:1006C000C44101200000000075B9030827000400A0
:1006D000306101200042012000000000680800088D
:1006E00010020100406101203C6101200000000077
:0406F0006C0800088A
:1006F400040101006C16000000000000000000006E
:100704000804440000000000010000000202000090
:100714002B21231E64010100000001000A012900AD
:10072400230A0000FA00000000300100000001006C
:1007340000000000000000000000000000000000B5
:10074400000000000000020000019E077D002C0153
:1007540096005802200001005A005A005A0028004E
:10076400020001000A00F401B80BB80BB80B20001A
:10077400C4090000000001010101FFFFFFFF0000A8
:10078400000100000548455350000000E8036400E0
:10079400040A000100002801000020003200C80003
:1007A400D0079600140032002800B004400600056B
:1007B400500014000F0008010000010000000000B8
:1007C4000000000000000000000000000000000025
:1007D40000002000010100000000000000010000F2
:1007E40000050000010203000000000000000000FA
:1007F40000000000000000000300004600000201A9
:10080400F4011400000000000000000000000000DB
:1008140000000000000000000000000000000000D4
:1008240000000000000000000000000000000000C4
:100834000000000000000100000500007E05EA053C
:10084400B4050300E803D0070000C4090700B4019D
:100854002828023C3F010000000000004A01B400C7
:09086400D601260020030000006B
:10086D000403090412010002EF0201408304563211
:10087D000002010203010000120100020202004009
:10088D008304405700020102030100000902200009
:10089D00010104C0320904000002080650050705D5
:1008AD0081024000000705010240000009026400BA
:1008BD00030100C0320904000001030000000921FA
:1008CD00110100012226000705830308000A080B09
:1008DD0001020202010009040100010202010005EA
:1008ED00240010010524010002042402020524063F
:1008FD000102070582030800FF09040200020A0035
:10090D0000000705010240000007058102400000BC
:10091D0009024300020100C0320904000001020275
:10092D000100052400100105240100010424020228
:10093D000524060001070582030800FF09040100D4
:10094D00020A0000000705010240000007058102B0
:10095D0040000000FF00000000FFFF00000000004D
:10096D00AA55050100000800010100000501090557
:10097D00A101A100050109300931093209330935F9
:10098D000934094009381581257F750895088102BC
:10099D00C0C0000009022200010100E0320904007C
:1009AD0000010301020009211101000122260007A7
:1009BD0005830308000A0000858700088187000869
:1009CD007D870008718700086D870008798700080A
:1009DD0075870008006002401060024000000000B2
:1009ED0000000000000B00000000000000000000EF
:1009FD00000000000060024028600240010000007D
:100A0D0000000000060C00000000000000000000C7
:100A1D000000000000600240406002400200000043
:100A2D0000000000100D000000000000000000009C
:100A3D00000000000060024058600240030000000A
:100A4D0000000000160E0000000000000000000075
:100A5D0000000000006002407060024004000000D1
:100A6D0000000000200F000000000000000000004A
:100A7D000000000000600240886002400500000098
:100A8D000000000026100000000000000000000023
:100A9D000000000000600240A0600240060000005F
:100AAD0000000000301100000000000000000000F8
:100ABD000000000000600240B86002400700000026
:100ACD0000000000362F00000000000000000000B4
:100ADD0000000000006402401064024000000000AD
:100AED0000000000003800000000000000000000C1
:100AFD000000000000640240286402400100000074
:100B0D000000000006390000000000000000000099
:100B1D00000000000064024040640240020000003A
:100B2D0000000000103A000000000000000000006E
:100B3D000000000000640240586402400300000001
:100B4D0000000000163B0000000000000000000047
:100B5D0000000000006402407064024004000000C8
:100B6D0000000000203C000000000000000000001C
:100B7D00000000000064024088640240050000008F
:100B8D0000000000264400000000000000000000EE
:100B9D000000000000640240A06402400600000056
:100BAD0000000000304500000000000000000000C3
:100BBD000000000000640240B8640240070000001D
:100BCD00000000003646000000000000000000009C
:100BDD0000000000000000000102030401020304F4
:100BED0006070809C1E8000899F0000811EC000893
:100BFD0081880008CD8A000891880008AD8800081A
:100C0D005988000849880008000000000000000015
:100C1D002D202D2D202D2D2D2D202D2D2D2D000078
:100C2D00000000000000000000000000000000AA0D
:100C3D00550B010000AA5507010000AA5509020035
:100C4D000000000001000000C012AA5503009F0023
:100C5D0001000000000001FFFF010000FF1FFF1F4A
:100C6D00440400200400000038150120000000009D
:100C7D000000803F0000803F0000000000000000E9
:100C8D000000000000000000000000000000000057
:100C9D000000000000000000000000000100000046
:100CAD00FFFFFFFF000200051002700BE0010101C4
:100CBD0001000000C595010800000000C8050020D6
:100CCD001C220508000000000000000000000000CC
:100CDD0000000000F40805080000000000000000FE
:100CED004906002004000000582005080D000000F2
:100CFD00C9BB0108702C0020000000006816050813
:100D0D000D000000F1BB0108642C00200000000064
:100D1D00401805080800000000000000582C0020B5
:100D2D0004000000D41605080D0000007996010896
:100D3D004C2C00200000000098170508030000004F
:100D4D00B1BE0108402C0020000000002C22050837
:100D5D0003000000B1BE0108342C0020000000008B
:100D6D004011050801000000000000000000000017
:100D7D0000000000000000000E0000000000000058
:100D8D0000000000000000001C220508000000000B
:100D9D00000000000000000000000000F40805083D
:100DAD0000000000000000004906002004000000C3
:100DBD00042005080300000031AC0108282C002098
:100DCD0008000000D41605080D00000079960108F2
:100DDD004C2C0020000000009817050803000000AF
:100DED00B1BE0108402C0020000000002C22050897
:100DFD0003000000B1BE0108342C002000000000EB
:100E0D004011050801000000000000000000000076
:100E1D0000000000000000000E00000000000000B7
:100E2D000000000000000000342205080000000052
:100E3D00000000000000000000000000F40805089C
:100E4D000000000000000000490600200400000022
:100E5D000C20050803000000B1BE01087C2C002009
:100E6D000000000040110508010000000000000016
:100E7D000000000000000000000000000E00000057
:100E8D0000000000000000000000000020700020A5
:100E9D00702D72000800000000000000000000002E
:100EAD00E42700206A0001D6012D202D2D202D2DA7
:100EBD002D2D202D2D2D0000000000000000000024
:100ECD000000000000000000FFFFFFFFFA0000001F
:100EDD000100000001000000D81A01200000F401FB
:100EED0001000000D61A01200000F40101000000ED
:100EFD00D41A01200000F40101000000D21A0120D3
:100F0D000000F40101000000D01A01200000F401DE
:100F1D0001000000CE1A01200000F40101000000C4
:100F2D00CC1A01200000F40101000000B4100508E6
:100F3D0000000000000000000000000000000000A4
:100F4D00CC100508000000000000000000000000AB
:100F5D0000000000EC100508080000000000000073
:100F6D00C006002000000000F81005080800000071
:100F7D0000000000B4060020000000000411050868
:100F8D000800000000000000A8060020000000007E
:100F9D00F01C050808000000000000009C06002061
:100FAD0000000000101105080800000000000000FE
:100FBD0090060020000000001C110508080000002C
:100FCD000000000084060020000000002811050824
:100FDD00080000000000000078060020000000005E
:100FED003411050802000000A5C001080200000030
:100FFD000000000040110508010000000000000085
:10100D000000000000000000000000000E000000C5
:10101D00000000000000000000000000999E010883
:10102D00599E0108CC060020CA1A01200532010084
:10103D00C81A0120E803D00701000000C61A0120DC
:10104D00E803D00701000000C41A0120E803D0070F
:10105D0001000000C21A01201E00B80B01000000A3
:10106D00C01A01201E00F40101000000BE1A01206B
:10107D001400640001000000BC1A01200000C8002B
:10108D0001000000AE1A012001FA0100AD1A012085
:10109D00010A0100BA1A012000FA0100B81A012054
:1010AD000000D00705000000B61A012000FA01006B
:1010BD00B41A01200000D00705000000B21A01206B
:1010CD0000FA0100B01A01200000D0070500000051
:1010DD00AC1A0120006401004811050850110508E3
:1010ED006C11050800000000000000000000000069
:1010FD0000000000CC1005080000000000000000FA
:10110D000000000000000000400B05080800000072
:10111D0000000000180800200000000080110508E4
:10112D0008000000000000000C0800200000000076
:10113D0094110508080000000000000000080020C0
:10114D0000000000A81105080800000000000000C4
:10115D00F407002000000000BC1105080800000085
:10116D0000000000E807002000000000CC11050879
:10117D000800000000000000DC0700200000000057
:10118D00DC1105080800000000000000D007002059
:10119D0000000000EC110508070000000000000031
:1011AD00C807002000000000FC1105080300000026
:1011BD00B1BE0108BC070020000000003411050875
:1011CD0002000000A5C001080200000000000000A0
:1011DD0040110508010000000000000000000000A3
:1011ED0000000000000000000E00000000000000E4
:1011FD0000000000000000002C1205080000000097
:10120D000000000000000000000000009210050822
:10121D0004000000A1B9010800000000000000005A
:10122D004011050801000000000000000000000052
:10123D0000000000000000000E0000000000000093
:10124D000000000000000000701205080000000002
:10125D00000000002C06002000000000841205088C
:10126D0007000000000000007008002000000000D2
:10127D00901205080800000000000000640800201E
:10128D00000000009C12050807000000000000008F
:10129D005C08002000000000A812050808000000EE
:1012AD00000000005008002000000000B8120508E2
:1012BD0007000000000000004808002000000000AA
:1012CD00C812050808000000000000003C080020BE
:1012DD0000000000D4120508070000000000000007
:1012ED003408002000000000E0120508070000008F
:1012FD00000000002C08002000000000E812050886
:10130D00070000000000000024080020000000007D
:10131D003411050802000000A5C0010801000000FD
:10132D000000000040110508010000000000000051
:10133D000000000000000000000000000E00000092
:10134D00000000000000000000000000A454002078
:10135D000100C40900000000A25400200100C409CE
:10136D0000000000A05400200100C409000000008E
:10137D009E5400200100C409000000009A54002072
:10138D000100C409000000009C5400200100C409A4
:10139D0000000000985400200100C4090000000066
:1013AD00965400200100C40900000000AE17012072
:1013BD000000FFFF0A000000AC1701200100C8006B
:1013CD0001000000AA170120320030753200000024
:1013DD00A8170120055A0500A517012000FF0100DF
:1013ED00A71701200100000078080020A317012095
:1013FD0002000000A0C30408A417012000FF010093
:10140D00A61701200100000078080020A217012076
:10141D0002000000A0C304089817012080C1803E7F
:10142D00050000009617012080C1803E05000000D8
:10143D009417012080C1803E050000009217012005
:10144D0080C1803E050000009117012000FF0100C2
:10145D00901701200A3201008F17012004000000AF
:10146D0088CA04088E170120020000009CCA0408D7
:10147D00159E0108D19D010880080020DE1A01206B
:10148D00EE02CA0801000000DC1A012000C80100AC
:10149D0064000000DB1A012000C801006400000098
:1014AD00DA1A012002000000A8CA0408000000009A
:1014BD000000000098090020D87100209CFF2C012D
:1014CD00000000004E0400200A000000B4CA040809
:1014DD0084170120E0150C170000000050040020B7
:1014ED0008000000F0BA04084F04002005000000B9
:1014FD00F4CB04088617012002000000CCCA0408B2
:10150D00EA1A01200100FF7F01000000E91A012005
:10151D0002000000D8CA0408941901200000C2017D
:10152D0001000000921901200000C201010000001D
:10153D00901901200000C201010000008E19012048
:10154D000000C201010000009E1901200A00F401F3
:10155D00010000009C1901200A00F40101000000A7
:10156D009A190120000005000100000098190120C2
:10157D000100040001000000961901200100803EC9
:10158D00050000008A1901200000803E6400000063
:10159D00881901200000803E64000000861901209A
:1015AD000000803E640000008C1901200300000241
:1015BD0001000000B21901200000F401010000003B
:1015CD00B01901200000F40101000000AE19012046
:1015DD000000F40101000000AC1901200000F4012D
:1015ED0001000000B8190120C800E8030100000047
:1015FD00B61901201E00E80301000000B4190120F6
:10160D000000E80301000000AA1901200000803E3F
:10161D0001000000A81901200000803E010000001B
:10162D00A61901200000803E01000000A419012030
:10163D000000803E01000000A21901200000803E44
:10164D0001000000A01901200000803E01000000F3
:10165D00E919012019640100ED1901200064010050
:10166D00EC19012000640100EB1901200A32010080
:10167D00EA19012003000000E8CA0408E619012058
:10168D00E803D0070A000000E419012000FA010068
:10169D000A000000E319012000FA01000A00000011
:1016AD00E219012000FA01000A000000D119012001
:1016BD0000640100D019012000640100D819012037
:1016CD00006401000A000000D71901200064010028
:1016DD000A000000D6190120006401000A00000074
:1016ED00DB190120006401000A000000DA19012055
:1016FD00006401000A000000D919012000640100F6
:10170D000A000000D519012000FF01000A000000A9
:10171D00D419012000FF01000A000000D319012097
:10172D0000FF01000A000000E1190120005F010027
:10173D000A000000E0190120005F01000A0000000E
:10174D00DF190120005F01000A000000DE190120F1
:10175D00005F01000A000000DD19012019AF010032
:10176D000A000000DC19012019AF01000A00000079
:10177D000C180120000A01000B180120000A0100BD
:10178D000A180120000A01001C18012000FA0100AE
:10179D001B18012000FA01001A18012000FA01009F
:1017AD00181801200000F401010000001618012096
:1017BD000000F40101000000141801200000F401E4
:1017CD0001000000121801200000F40101000000CA
:1017DD00101801200000F401010000000E18012076
:1017ED000000F40101000000CE190120FF080100E6
:1017FD00CD19012001640100CC1901200064010004
:10180D00CB19012001000000F8CA0408CA190120F3
:10181D0000C80100C81901200000D0070100000018
:10182D00C719012000C80100C619012000C8010018
:10183D00C519012000C80100C419012000C801000C
:10184D00C319012000FA01000A000000C01901208F
:10185D0000FA01000A000000BD19012000FA010084
:10186D000A000000C219012000FA01000A00000060
:10187D00BF19012000FA01000A000000BC19012067
:10188D0000FA01000A000000C119012000FA010050
:10189D000A000000BE19012000FA01000A00000034
:1018AD00BB19012000FA01000A000000AB1A01204B
:1018BD0000C80100AA1A012000C80100A91A0120C0
:1018CD0000C80100A81A012000C80100A71A0120B4
:1018DD0000C80100A61A012000C80100A51A0120A8
:1018ED0000C80100A41A012000C80100A31A01209C
:1018FD0000C801003D9D01083DBD0108E80900201B
:10190D00F8120508000000000000000000000000B3
:10191D00000000002C1C050809000000000000005C
:10192D00400B002004000000441C050809000000C5
:10193D0000000000340B002004000000001E05080C
:10194D000900000000000000280B0020040000002A
:10195D00A40A050809000000000000001C0B00206F
:10196D000400000008130508090000000000000035
:10197D00100B0020040000001013050809000000E2
:10198D0000000000040B00200400000018130508DF
:10199D000900000000000000F80A0020040000000B
:1019AD00201305080900000000000000EC0A0020CB
:1019BD0004000000401105080100000000000000B7
:1019CD000000000000000000000000000E000000FC
:1019DD000000000000000000000000004415050894
:1019ED0000000000000000000000000000000000EA
:1019FD00AC5605080700000000000000700B002029
:101A0D00000000005415050808000000000000004B
:101A1D00640B0020000000006015050808000000A0
:101A2D0000000000580B002000000000681505089C
:101A3D0008000000000000004C0B0020000000001A
:101A4D003411050802000000A5C0010801000000C6
:101A5D00000000004011050801000000000000001A
:101A6D000000000000000000000000000E0000005B
:101A7D0000000000000000000000000078150508BF
:101A8D000000000000000000000000000000000049
:101A9D00881505080D00000000000000AC0B0020AB
:101AAD0000000000901505080D000000000000006A
:101ABD00A00B00200000000098150508070000008D
:101ACD0000000000980B002000000000A015050884
:101ADD000D000000000000008C0B00200000000035
:101AED00A81505080D00000000000000800B002067
:101AFD0000000000B0150508070000000000000000
:101B0D00780B0020000000003411050802000000D1
:101B1D00A5C00108010000000000000040110508EB
:101B2D0001000000000000000000000000000000A7
:101B3D00000000000E00000000000000000000008A
:101B4D0000000000B81505080000000000000000AE
:101B5D000000000000000000AC5605080C0000005D
:101B6D0000000000B017012000000000CC15050892
:101B7D000C00000000000000B21701200000000062
:101B8D00DC1505080C00000000000000E81701201E
:101B9D0000000000EC1505080C000000000000001E
:101BAD00DC17012000000000001605080C000000E5
:101BBD0000000000B4170120000000000C160508FD
:101BCD000C00000000000000B6170120000000000E
:101BDD00141605080C00000000000000B8170120C5
:101BED0000000000281605080C0000000000000091
:101BFD00BA17012000000000301605080C00000087
:101C0D0000000000BC170120000000003816050878
:101C1D000C00000000000000FA1701200000000079
:101C2D00501605080C00000000000000BE17012032
:101C3D00000000005C1605080C000000000000000C
:101C4D00C017012000000000001805080C0000005E
:101C5D0000000000C21701200000000064160508F6
:101C6D000C00000000000000C4170120000000005F
:101C7D00701605080C00000000000000C6170120BA
:101C8D00000000007C1605080C000000000000009C
:101C9D00C817012000000000881605080C00000080
:101CAD0000000000CA17012000000000941605086E
:101CBD000C00000000000000CC1701200000000007
:101CCD00A01605080C00000000000000E017012020
:101CDD0000000000A81605080C0000000000000020
:101CED00DE17012000000000B01605080C000000F2
:101CFD0000000000EC17012000000000BC160508D4
:101D0D000C00000000000000EE1701200000000094
:101D1D00C81605080C00000000000000F417012093
:101D2D00000000003C0C05080C0000000000000045
:101D3D00CE17012000000000D41605080C0000008D
:101D4D0000000000D617012000000000DC16050879
:101D5D000C00000000000000D01701200000000062
:101D6D00E81605080C00000000000000D217012045
:101D7D0000000000F41605080C0000000000000033
:101D8D00D417012000000000FC1605080C0000000F
:101D9D0000000000D81701200000000008170508FA
:101DAD000C00000000000000E21701200000000000
:101DBD00101705080C00000000000000DA170120C4
:101DCD00000000001C1705080C00000000000000BA
:101DDD00EA17012000000000281705080C0000007C
:101DED0000000000E4170120000000003017050876
:101DFD000C00000000000000E617012000000000AC
:101E0D00381705080C00000000000000F017012035
:101E1D0000000000401705080C0000000000000045
:101E2D00F217012000000000481705080C00000003
:101E3D0000000000021801200000000040110508FC
:101E4D000100000000000000000000000000000084
:101E5D00000000000E000000000000000000000067
:101E6D0000000000501705080000000000000000F1
:101E7D0000000000000000005C1705080D000000C8
:101E8D0000000000040C002000000000641705088D
:101E9D000D00000000000000F80B00200000000005
:101EAD006C1705080700000000000000F00B002073
:101EBD000000000078170508070000000000000072
:101ECD00E80B002000000000841705080900000041
:101EDD0000000000DC0B002000000000901705083A
:101EED000900000000000000D00B002000000000E1
:101EFD009C1705080900000000000000C40B00201D
:101F0D0000000000AC1705080900000000000000EB
:101F1D00B80B00200000000034110508020000007D
:101F2D00A5C00108010000000000000040110508D7
:101F3D000100000000000000000000000000000093
:101F4D00000000000E000000000000000000000076
:101F5D0000000000C0170508000000000000000090
:101F6D000000000000000000CC100508000000007B
:101F7D00000000000000000000000000D017050860
:101F8D000D00000000000000400C002000000000CB
:101F9D00DC1705080B00000000000000340C0020C9
:101FAD0000000000E81705080B000000000000000D
:101FBD00280C002000000000F8170508080000009C
:101FCD00000000001C0C0020000000000C1805088B
:101FDD0003000000B1BE0108100C0020000000003D
:101FED003411050802000000A5C001080200000020
:101FFD000000000040110508010000000000000075
:10200D000000000000000000000000000E000000B5
:10201D000000000000000000000000001818050876
:10202D0000000000000000000000000000000000A3
:10203D0028180508050000000000000009180120FF
:10204D00000000003411050802000000A5C00108C1
:10205D000100000000000000401105080100000013
:10206D000000000000000000000000000000000063
:10207D000E00000000000000000000000000000045
:10208D0030180508000000000000000000000000EE
:10209D0000000000F408050800000000000000002A
:1020AD00B0030020040000003C1805080D000000DE
:1020BD0005BA0108940C0020000000005820050806
:1020CD000D0000007D950108880C00200000000027
:1020DD00681605080D000000619501087C0C0020B4
:1020ED000000000040180508080000000000000076
:1020FD00700C002004000000D41605080D0000002F
:10210D00AB940108640C002000000000481805087D
:10211D000900000000000000580C00200400000021
:10212D009817050803000000B1BE01084C0C0020F3
:10213D000000000040110508010000000000000033
:10214D000000000000000000000000000E00000074
:10215D0000000000000000000000000050180508FD
:10216D000000000000000000000000000000000062
:10217D00601805080D00000000000000AC0C0020E8
:10218D0000000000681805080A00000000000000AB
:10219D00111D012000000000741805080A00000040
:1021AD0000000000191D0120000000007C1805082A
:1021BD000A00000000000000211D012000000000A9
:1021CD00841805080800000000000000A00C002085
:1021DD00000000008C1805080400000051C0010823
:1021ED00000000000000000034110508020000008E
:1021FD00A5C0010801000000000000004011050805
:10220D0001000000000000000000000000000000C0
:10221D00000000000E0000000000000000000000A3
:10222D0000000000981805080000000000000000E4
:10223D000000000000000000CC10050800000000A8
:10224D00000000000000000000000000AC180508B0
:10225D000800000000000000480D002000000000F4
:10226D00B418050808000000000000003C0D002017
:10227D0000000000BC180508080000000000000068
:10228D00300D002000000000C418050808000000F3
:10229D0000000000240D002000000000CC180508EF
:1022AD000800000000000000180D002000000000D4
:1022BD00DC18050808000000000000000C0D0020CF
:1022CD0000000000F01805080800000000000000E4
:1022DD00000D002000000000041905080800000092
:1022ED0000000000F40C0020000000001819050883
:1022FD000800000000000000E80C002000000000B5
:10230D002C1905080800000000000000DC0C00205E
:10231D00000000003819050808000000000000004A
:10232D00D00C002000000000441905080800000032
:10233D0000000000C40C0020000000004C1905082E
:10234D000800000000000000B80C00200000000094
:10235D005819050802000000A5C001080200000080
:10236D000000000040110508010000000000000001
:10237D000000000000000000000000000E00000042
:10238D0000000000000000000000000064190508B6
:10239D000000000000000000000000000000000030
:1023AD00781905080800000000000000E40D002069
:1023BD00000000008819050808000000000000005A
:1023CD00D80D002000000000981905080800000035
:1023DD0000000000CC0D002000000000A819050829
:1023ED000800000000000000C00D002000000000EB
:1023FD00B81905080800000000000000B40D002009
:10240D0000000000C81905080800000000000000C9
:10241D00A80D002000000000D819050808000000D4
:10242D00000000009C0D002000000000E4190508CC
:10243D000800000000000000900D002000000000CA
:10244D00F41905080800000000000000840D0020AC
:10245D0000000000041A050808000000000000003C
:10246D00780D002000000000101A0508080000007B
:10247D00000000006C0D0020000000001C1A050873
:10248D000800000000000000600D002000000000AA
:10249D00281A05080800000000000000540D002057
:1024AD00000000003411050802000000A5C001085D
:1024BD0001000000000000004011050801000000AF
:1024CD0000000000000000000000000000000000FF
:1024DD000E000000000000000000000000000000E1
:1024ED00341A050800000000000000002F0600202F
:1024FD0000000000401A05080B000000000000005D
:10250D00040F002000000000501A05080B00000009
:10251D0000000000F80E0020000000005C1A050805
:10252D000B00000000000000EC0E00200000000079
:10253D006C1A05080B00000000000000E00E0020E2
:10254D0000000000781A05080B00000000000000D4
:10255D00D40E0020000000008C1A05080B000000AE
:10256D0000000000C80E0020000000009C1A0508A5
:10257D000B00000000000000BC0E00200000000059
:10258D00A81A05080B00000000000000B00E002086
:10259D0000000000B41A05080B0000000000000048
:1025AD00A40E002000000000C01A05080B0000005A
:1025BD0000000000980E002000000000CC1A050855
:1025CD000B000000000000008C0E00200000000039
:1025DD00D81A05080B00000000000000800E002036
:1025ED0000000000E41A05080B00000000000000C8
:1025FD00740E002000000000F01A05080B0000000A
:10260D0000000000680E002000000000FC1A050804
:10261D000B000000000000005C0E00200000000018
:10262D00081B05080700000000000000540E0020E4
:10263D0000000000101B050807000000000000004E
:10264D004C0E0020000000001C1B05080B000000B4
:10265D0000000000400E002000000000281B0508AF
:10266D000B00000000000000340E002000000000F0
:10267D00341B05080B00000000000000280E002090
:10268D0000000000401B05080800000000000000CD
:10269D001C0E002000000000501B05080D0000005E
:1026AD0000000000100E002000000000601B050857
:1026BD000700000000000000080E002000000000D0
:1026CD00701B05080700000000000000000E002030
:1026DD0000000000801B050807000000000000003E
:1026ED00F80D002000000000901B050807000000F9
:1026FD0000000000F00D002000000000341105085E
:10270D0002000000A5C0010801000000000000004B
:10271D00401105080100000000000000000000004D
:10272D0000000000000000000E000000000000008E
:10273D000000000000000000A41B050800000000C0
:10274D00000000000000000000000000B81B05089C
:10275D0008000000000000007C0F002000000000B9
:10276D00C81B05080800000000000000700F0020C5
:10277D0000000000D81B0508080000000000000044
:10278D00640F002000000000E81B05080800000091
:10279D0000000000580F002000000000F81B050885
:1027AD0008000000000000004C0F00200000000099
:1027BD000C1C05080800000000000000400F002060
:1027CD00000000001C1C05080700000000000000B0
:1027DD00380F002000000000341C05080700000021
:1027ED0000000000300F0020000000004C1C050808
:1027FD000700000000000000280F0020000000006E
:10280D00601C05080700000000000000200F0020DC
:10281D0000000000701C050807000000000000000B
:10282D00180F002000000000841C050807000000A0
:10283D0000000000100F00200000000034110508FA
:10284D0002000000A5C0010801000000000000000A
:10285D00401105080100000000000000000000000C
:10286D0000000000000000000E000000000000004D
:10287D000000000000000000941C0508000000008E
:10288D00000000002C06002000000000A41C05081C
:10289D000B000000000000004010002000000000B0
:1028AD00B01C05080B0000000000000034100020D3
:1028BD0000000000BC1C05080B000000000000001B
:1028CD002810002000000000C81C05080B000000A7
:1028DD00000000001C10002000000000D41C0508A2
:1028ED000B00000000000000101000200000000090
:1028FD00E01C05080B000000000000000410002083
:10290D0000000000EC1C05080B000000000000009A
:10291D00F80F002000000000F81C05080B00000057
:10292D0000000000EC0F002000000000041D050851
:10293D000B00000000000000E00F00200000000070
:10294D00101D05080700000000000000D80F002032
:10295D00000000001C1D050807000000000000001D
:10296D00D00F002000000000281D05080700000002
:10297D0000000000C80F002000000000381D0508F1
:10298D000700000000000000C00F00200000000044
:10299D00481D05080800000000000000B40F0020CD
:1029AD0000000000501D0508070000000000000099
:1029BD00AC0F0020000000005C1D05080D0000009C
:1029CD0000000000A00F0020000000006C1D050895
:1029DD000700000000000000980F0020000000001C
:1029ED00781D05080700000000000000900F002072
:1029FD0000000000881D0508060000000000000012
:102A0D00880F0020000000003411050802000000AE
:102A1D00A5C00108010000000000000040110508DC
:102A2D000100000000000000000000000000000098
:102A3D00000000000E00000000000000000000007B
:102A4D0000000000981D05080000000000000000B7
:102A5D002C06002000000000B01D0508030000003A
:102A6D00B1BE01089410002000000000C01D050833
:102A7D0007000000000000008C1000200000000086
:102A8D00C81D05080700000000000000841000208C
:102A9D0000000000D01D0508070000000000000028
:102AAD007C10002000000000CC1C05080700000071
:102ABD00000000007410002000000000D81C050864
:102ACD0007000000000000006C1000200000000056
:102ADD00E41C050807000000000000006410002041
:102AED0000000000D81D05080700000000000000D0
:102AFD005C10002000000000E01D0508070000002C
:102B0D00000000005410002000000000E81D050822
:102B1D0007000000000000004C1000200000000025
:102B2D003411050802000000A5C0010801000000D5
:102B3D000000000040110508010000000000000029
:102B4D000000000000000000000000000E0000006A
:102B5D000000000000000000000000000000000068
:102B6D000D990108A0100020071801202C0000006D
:102B7D0000CB04080618012000C80100041801202C
:102B8D00E803D0070100000048454C494F5350520F
:102B9D00494E4700A117012000030100A017012095
:102BAD00000301004D9801081D9801087C110020BB
:102BBD00D99701088D9701081C12002095980108DE
:102BCD007D980108E4120020F19601089D960108F8
:102BDD0004160020099F0108D99E0108F416002053
:102BED002199010819BC0108BC170020E9940108BE
:102BFD0000000000201800202DC001086D9F010865
:102C0D00FC1800208D9A0108259A0108C41900208E
:102C1D00559B0108F59A01082C1B0020719C010899
:102C2D00BD9C0108801C0020CF1901200106010068
:102C3D00B199010849990108D81E0020B59B0108DA
:102C4D0049BC010818200020F19C010809BD0108AC
:102C5D00E4210020BA19012001030100F01D05082F
:102C6D000000000000000000000000000000000057
:102C7D00FC1D050808000000000000001C230020BA
:102C8D0000000000041E0508070000000000000001
:102C9D001423002000000000141E05080D00000084
:102CAD00000000000823002000000000201E050881
:102CBD0003000000B1BE0108FC220020000000004E
:102CCD003411050802000000A5C001080100000034
:102CDD000000000040110508010000000000000088
:102CED000000000000000000000000000E000000C9
:102CFD00000000000000000000000000281E050874
:102D0D0000000000000000000000000000000000B6
:102D1D00381E05080A00000000000000D80705084D
:102D2D0000000000401E05080A0000000000000021
:102D3D001310050800000000481E05080A000000D9
:102D4D0000000000E01A012000000000501E0508E0
:102D5D000A000000000000002823002000000000F1
:102D6D0040110508010000000000000000000000F7
:102D7D0000000000000000000E0000000000000038
:102D8D000000000000000000581E050800000000B3
:102D9D00000000000000000000000000641E050897
:102DAD0003000000B1BE01085C23002000000000FC
:102DBD00701E050803000000B1BE0108502300205D
:102DCD0000000000781E050803000000B1BE0108D8
:102DDD004423002000000000801E050805000000AF
:102DED00000000009F17012000000000881E05084C
:102DFD0007000000000000003C2300200000000040
:102E0D00941E050807000000000000003423002078
:102E1D00000000003411050802000000A5C00108E3
:102E2D000100000000000000401105080100000035
:102E3D000000000000000000000000000000000085
:102E4D000E00000000000000000000000000000067
:102E5D00A01E05080000000000000000000000009A
:102E6D0000000000B41E050803000000B1BE0108FB
:102E7D009823002000000000C01E0508030000007C
:102E8D00B1BE01085404002000000000C81E050852
:102E9D0003000000B1BE01088C23002000000000DB
:102EAD00D01E050803000000B1BE010880230020DC
:102EBD0000000000100B050803000000B1BE010862
:102ECD007423002000000000D41605080300000044
:102EDD00B1BE010868230020000000003411050870
:102EED0002000000A5C00108010000000000000064
:102EFD004011050801000000000000000000000066
:102F0D0000000000000000000E00000000000000A6
:102F1D000000000000000000DC1E0508000000009D
:102F2D00000000000000000000000000EC1E05087D
:102F3D0007000000B9BD0108F423002000000000C7
:102F4D00F816050803000000B1BE0108E8230020B3
:102F5D0000000000F81E050803000000B1BE0108C6
:102F6D00DC23002000000000001F05080300000006
:102F7D00B1BE0108D023002000000000081F050885
:102F8D00070000009DBD0108C823002000000000BF
:102F9D00C40A050803000000B1BE0108BC230020CF
:102FAD0000000000141F050803000000B1BE010859
:102FBD00B023002000000000201F050803000000C2
:102FCD00B1BE0108A4230020000000003411050843
:102FDD0002000000A5C00108010000000000000073
:102FED004011050801000000000000000000000075
:102FFD0000000000000000000E00000000000000B6
:10300D000000000000000000DD980108AD980108E7
:10301D00FC230020399F0108000000009C240020A3
:10302D006997010845970108282500200000000038
:10303D0000000000F0250020A99D0108D5BD010864
:10304D00B8260020281F0508000000000000000021
:10305D000000000000000000341F05080300000000
:10306D00B1BE0108D8270020000000003C1F050854
:10307D0003000000B1BE0108CC27002000000000B5
:10308D00780B050803000000B1BE0108C027002021
:10309D0000000000481F050803000000B1BE010834
:1030AD00B427002000000000541F05080300000095
:1030BD00B1BE0108A8270020000000005C1F050814
:1030CD0002000000A5C00108000000000000000083
:1030DD003411050802000000A5C001080100000020
:1030ED00000000005819050802000000A5C00108E5
:1030FD000200000000000000000000000E000000B3
:10310D000000000000000000000000008A170120F0
:10311D0088136F17010000008C17012088136F179B
:10312D0000000000641F0508000000000000000002
:10313D000000000000000000741F050808000000DA
:10314D0000000000B828002004000000801F0508C2
:10315D000800000000000000AC2800200000000066
:10316D0098170508040000002DBA010800000000A2
:10317D0000000000401105080100000000000000E3
:10318D000000000000000000000000000E00000024
:10319D000000000000000000000000008817012062
:1031AD0088136F17010000001872002088136F1725
:1031BD00000000002D96010800000000C42800202A
:1031CD00B51C012001000000B4CB04081A720020C8
:1031DD0001000000C0CB04081072002002000000A6
:1031ED00C8CB04085640002000000000000000007D
:1031FD00544000200000000000000000524000205C
:10320D000000000000000000504000200000000001
:10321D00000000004E4000200000000000000000F3
:10322D004C4000200000000000000000E8030020DA
:10323D0000000000000000008717012002000000C0
:10324D00D4CB0408BC1F05080000000000000000DE
:10325D000000000000000000741F050808000000B9
:10326D00000000004829002004000000801F050810
:10327D0008000000000000003C29002000000000B4
:10328D009817050804000000FD95010800000000D6
:10329D0000000000401105080100000000000000C2
:1032AD000000000000000000000000000E00000003
:1032BD00000000000000000000000000CC1F050809
:1032CD0000000000000000000000000000000000F1
:1032DD00DC1F05080D0000006DBB010878290020DA
:1032ED0004000000E81F05080D00000055960108B8
:1032FD006C29002004000000F41F05080D000000DB
:10330D0031BB0108602900200000000000200508E5
:10331D000300000051AC01085429002008000000F2
:10332D000C20050803000000B1BE01087C2C002014
:10333D000000000040110508010000000000000021
:10334D000000000000000000000000000E00000062
:10335D000000000000000000000000002C12050815
:10336D000000000000000000000000000000000050
:10337D00921005080400000045BA01080000000085
:10338D0000000000401105080100000000000000D1
:10339D000000000000000000000000000E00000012
:1033AD000000000000000000000000006020050883
:1033BD000000000000000000000000000000000000
:1033CD00142105080D00000000000000D829002080
:1033DD000400000070200508080000000000000037
:1033ED00CC290020040000007C2005080800000006
:1033FD0000000000C0290020040000008420050802
:10340D000800000000000000B429002004000000A6
:10341D008C2005080800000000000000A8290020ED
:10342D0004000000942005080800000000000000C2
:10343D009C290020040000009C20050808000000C5
:10344D00000000009029002004000000A4200508C1
:10345D000800000000000000842900200400000086
:10346D0040110508010000000000000000000000F0
:10347D0000000000000000000E0000000000000031
:10348D00000000000000000015960108000000007B
:10349D00E429002000000000000000005C2A00204C
:1034AD000000000000000000FC2A00201672002021
:1034BD0004000000E0CB040814720020E0150C1786
:1034CD00000000001372002008000000F0BA04088C
:1034DD001272002005000000F4CB0408000000006B
:1034ED00000000004C2B002001FFFF00FFFFFFFF3D
:1034FD000000803F00000000000000000000000000
:10350D000000803F000000000000000000000000EF
:10351D000000803F000000000000000000000000DF
:10352D000000803FFF000000000000002C3401204F
:10353D0008000000000000001C34012008000000FD
:10354D00ED8E0008DD890008F1EB00080000000099
:10355D00458800088DE80008A18E000801E80008E4
:10356D000000000000000000018800089587000899
:10357D008987000845DF000861DF000829DF0008A2
:10358D000DDF0008F1DE0008A58E0008B9890008DE
:10359D003DEB0008000000001988000805E8000850
:1035AD00758E00085DE700080000000000000000B7
:1035BD000D880008C8F90408050804000000000083
:1035CD00F4CB0408F0BA0408E0CB040800000000B6
:1035DD0000000000F4F9040805080A0000000000CE
:1035ED00F4CB0408F0BA0408B4CA040800000000C3
:1035FD00000000001A0300000000000000000000A1
:10360D0000000000000000000000000000000000AD
:10361D000403090412010002000000408304205736
:10362D00000201020301010102FFFF00514C0408D9
:10363D001DB6030819B6030815B603081DDF0308E8
:10364D0011B603080DB6030880FD0408798F000834
:10365D009989000859E900080000000000000000E9
:10366D0051E6000879E600080000000000000000A7
:10367D0000000000F5870008B5B60308A9B60308D9
:10368D0015BE030831BE030861B60308F9BD030872
:10369D00DDBD03080100000050010000070000001F
:1036AD000200000000000000000000000102030401
:1036BD0006070809FF0000005C2E00200000000036
:1036CD0000000000000000000000000000000000ED
:1036DD0000000000000000000000000000000000DD
:1036ED0000000000000000000000000000000000CD
:1036FD0000000000000000000000000000000000BD
:10370D0000000000000000000000000000000000AC
:0C371D00000000000000000000000000A0
:108000002DE9F04F2DED108B034697B004331593F7
:10801000DFEDCACA149002238A4613928B4612934C
:10802000149C4FEADB0604EB461202EB061031010A
:10803000A6EB86034FEAC60806EB4605CDE900012C
:1080400000EBC303043108F10400119620442144DD
:108050002C01C6EBC60C0394EC00119D04944FEA6E
:10806000CC0405946C0106EB860E0294159D009CD1
:1080700003EB46174FEACE0E02EBC6064FEACB09DA
:108080004FF0000C51ED01AAD3ED001A92ED007AE9
:1080900094ED005A96ED004AD7ED007A15ED012ACD
:1080A00050ED016A32EE07BA76EE840A7AEE855A0E
:1080B00031EEA70A3BEE256A70EE804A76EEC46A7E
:1080C00036EE244A36EE646A05ED014A82ED006A16
:1080D000D0ED00BAD6ED012AD3ED019A95ED00AAB4
:1080E00092ED016A97ED013A91ED00CAD4ED014A93
:1080F0007BEEE23A36EEE19A32EE472A73EEE98AF7
:108100003AEE464A39EE279A78EE838AB0EE428AF2
:10811000A9EE6C8ADC44E24573EEC33AB0EE441A31
:10812000A8EEEC1A76EEE77A33EEA97A7CEE643AA2
:1081300077EEA17A3AEE066A7AEEC51A3CEE24AAE8
:1081400074EECC4A39EE833A35EE6A5AF0EE639A11
:10815000F0EE48AAE7EE2C9AA8EEAC4AE7EE2C4ADD
:10816000E7EE6CAAF0EE418AB0EE427AB0EE612AF8
:108170007BEE656A7BEEA22A76EE4A5AA9EE2C7A4D
:10818000A7EEAC2AA7EEAC5AE7EEEC8A32EE83BA41
:1081900076EEC3BA35EEE09A75EEC07A36EE0A6A2C
:1081A00076EEE26A36EE0BAA76EE836A77EEA07A76
:1081B00034EE423A77EE290A36EE4B6A7BEEA22A7B
:1081C00039EE000A73EEAA3A78EE244A37EE697A5D
:1081D00031EE055A71EEA85A32EE044A85ED00AA36
:1081E00082ED016A4D4441ED012A4A44C4ED006A22
:1081F00081ED000AC4ED017A494440ED010A4C4486
:1082000087ED007AC6ED003AC3ED004A80ED003AF2
:1082100087ED014A484486ED015A4F44C3ED015AA7
:108220004E444B443FF62EAF119B072B40F2C781C3
:10823000029D149E019B03980499059A08357519AF
:108240000C330E95354608F108080EF10804EB18BA
:1082500008300831083246442C1928186918AA1821
:10826000079305F10C030D960C940B900A9109925B
:1082700008934FF001084FF0000E129B9E44139B91
:1082800003EBCE0303EBCE02109302EBCE0303EB22
:10829000CE01029101EBCE0101EBCE0505EBCE063E
:1082A000D6ED007A0F93AEEB8E03019106EB03132C
:1082B00003EBCE07D3ED01AACDED067A019BD5EDF8
:1082C000007A97ED01BACDED057AD3ED007A029BE5
:1082D000CDED047AD3ED007A0F9BCDED037A07EB59
:1082E000CE0CD3ED007ADCED01BACDED027A0CEBC9
:1082F000CE01D2ED007A109A009101EBCE0001463A
:1083000091ED01DACDED017A0099D2ED007A91ED8F
:1083100001CA00EBCE0000EBCE0494ED01EAD0EDF3
:1083200001DACDED007ADDE90776DDE90954DDE912
:108330000B01DDE90D23C44602E000BFF304353F25
:1083400094ED009A90ED00FA91ED006AD5ED007A77
:10835000D3ED006A57ED014A92ED005A56ED013A0D
:1083600096ED00AA35EE060A73EEA65A39EE278A74
:1083700034EE8F7A70EE082A75EE87EA35EE465AAB
:108380003EEEA26A73EEE63A06ED016AD1ED019A7D
:10839000D2ED01FAD4ED016AD3ED011A95ED013A5F
:1083A000D0ED018A97ED004A3FEEE96A35EE491AB1
:1083B00076EE660A31EE271A3AEE612A75EE677A92
:1083C00070EE830A3FEEA95A74EECF9A77EE897A5F
:1083D0007AEE211AB0EE42AA74EE68FAA0EEECAA88
:1083E000DC44E24535EEC77AB0EE639A74EE285A63
:1083F00038EEC44AF0EE698AA1EE6C9AE7EEAC8AD8
:1084000036EE436A7FEE644A36EE266AA0EEAC2A68
:10841000F0EE4A0AE7EEEC0AE7EEAC4AF0EE687AD4
:10842000F0EE498A36EE833AE6EE6C8AE1EE2C3ABB
:10843000B0EE6F1AA6EE2C1A71EEE56AA6EE2C4A83
:1084400071EEA55A75EE031A7EEEE22A37EE43FA74
:1084500075EEE1EAB0EE686A76EEC08A39EE044A5B
:108460007FEE86FA76EEC86A33EE816A38EE888A45
:1084700073EEC13A37EE457A2CEE2E1A3FEE055ACE
:1084800022EECC9A9DED03FA70EE266A33EE077A5F
:10849000AFEE221AAFEE2E9A7AEE244A9DED01FA43
:1084A00079EEA09A25EE4BAA72EE670A37EE822A81
:1084B0006BEE087AAFEE08AAEFEE057A2DEEA63A3B
:1084C0009DED05FA67EE6D8AAFEE073AEFEE268A6C
:1084D00066EE6A2A9DED00FA2AEEA00AEFEE202A47
:1084E0006EEE02EADDED060A23EECE5AE0EEA3EAD6
:1084F0002BEEA98ADDED023AAFEE060AA3EE848ADE
:1085000024EE6B7A6DEE246A9DED044A2FEECD6A5F
:10851000A0EE825AA3EEA97AE4EE2F6AA4EE246AB2
:1085200075EEA15AC6ED005A83ED001A83ED019A4B
:108530004E4447ED017A87ED00AA4B4480ED003AA6
:10854000C0ED018A4F4482ED000A4844C2ED012A81
:10855000C5ED00EA85ED015A4A44C1ED006A81ED9E
:10856000016A4D4484ED008A84ED017A49444C440B
:108570003FF6E6AE0E9B08330E930D9B08330D932A
:108580000C9B08330C930B9B08330B930A9B08330B
:108590000A93099B08330993089B08330893079BA8
:1085A00008330793119B08F1010843457FF465AE3A
:1085B000129BDDF844B0DB009BB2129330E517B09C
:1085C000BDEC108BBDE8F08F074AD2E9003199422B
:1085D0001FBFD1180133097A01701DBFC3F30A030D
:1085E0000120136000207047C02E0020064AD2F8F8
:1085F0000838D2F80C28934294BF4FF40060002052
:10860000013B9B1A18447047C02E0020012380F8BC
:108610004D30704707B501A8FFF7D6FF0028FAD004
:108620009DF8040003B05DF804FB044BD3E900039C
:10863000984288BF03F50063181A7047C02E0020C7
:1086400001207047024BC3F81028C3F81418704774
:10865000C02E0020024BC3F81828C3F81C1870471E
:10866000C02E00207047704730B4124DD5E900236A
:108670009A4286BF03F50064A21A9A1A0A44B2F518
:10868000006F11D899B101444A1E013810F8014F0A
:10869000E918824203F101030C72C3F30A03F5D116
:1086A0006B60002030BC7047022030BC7047084629
:1086B000F8E700BFC02E0020212838B50C4605D0B1
:1086C00022282ED0202813D0002038BD0029FBD02E
:1086D000072AF9D11A4BD3F8200893F8241893F8F5
:1086E000252893F82638206021716271A371EBE789
:1086F0000029E9D0072AE7D1114DD5F814381BB16C
:108700000968D5F810089847206821796279A3791B
:10871000C5F8200885F8241885F8252885F8263816
:10872000D2E70029D0D0022ACED1054AD2F81C388F
:10873000002BC9D00988D2F818089847C4E700BFB1
:10874000C02E0020024B0020C3F82808704700BF4D
:10875000C02E0020044B00200522C3F82828C3F8AF
:108760001C08C3F814087047C02E0020704700BFD3
:10877000704700BF704700BF704700BF704700BF21
:10878000704700BF704700BF042301480B8070474B
:108790000000002010B4074A074B92F82C0812245E
:1087A00003F114020C8001280CBF184610465DF836
:1087B000044B7047C02E00200400002010B40C4A67
:1087C00092F82F3802EBC3010133DBB2042B4FF0D8
:1087D000050408BF00234FF4045081F8304882F8A4
:1087E0002F38C1F834085DF8044B4FF0FF30704764
:1087F000C02E0020202301480B8070472C00002051
:10880000642301480B8070474C000020432301483B
:108810000B807047B000002010B5084CD4F8F4006D
:10882000FF2809D00649D1F8502801F65401FFF776
:1088300043FFFF23C4F8F430002010BD00000020E7
:10884000C02E0020E8E700BF08B5D0F8E4355B6A29
:108850009847002008BD00BF08B5D0F8E4351B6A72
:108860009847002008BD00BFD0F8E43510B5044695
:108870001B689847D4F8E8359B689847002010BDDE
:1088800008B5D0F8E435DB6903B19847002008BD8E
:1088900008B5042290F81211D0F8E83580F81311C9
:1088A00080F81221DB689847002008BD10B5D0F889
:1088B000E83504461B699847032384F812310020E9
:1088C00010BD00BF0B0617D401EB810300EBC303FF
:1088D00010B400EB81000124002283F8764383F872
:1088E000741383F87523426D5DF8044B136843F4E9
:1088F000001300201360704701F07F0101EB81033A
:1089000000EBC303012200EB810083F81C1183F804
:108910001E2183F81D2182691368002B01DA43F0C0
:10892000804343F400131360002070470B0630B4FB
:108930001CD401EB810200EBC202002300EB810595
:1089400082F8741382F8753301241A4604FA01F18F
:108950006D6D61F31F4201696FF3CF332B60CB69FB
:1089600023EA0203002030BCCB61704701F07F0195
:1089700001EB810400EBC404012200EB810500231C
:1089800084F81C1184F81D2102FA01F11A46AD6920
:1089900061F30F02DFE700BF10B581210446FFF746
:1089A000C5FF20460121FFF7C1FF024B002083F8DD
:1089B0005C0810BDC02E002010B581210446FFF7D1
:1089C000B5FF20460121FFF7B1FF82212046FFF7C6
:1089D000ADFFFFF7B7FE002010BD00BF38B50D4654
:1089E00004468321FFF7A2FF29462046FFF7E4FF54
:1089F000002038BDF0B416460A063AD401EB8105D2
:108A000000EBC5052824002204FB0104022B85F895
:108A10007413C5F87C6385F8773385F8752304F5FE
:108A20005D7448D0154600EB8107012202FA01F17E
:108A30007F6D61F31F45D7F800C01CF4004F11D1C2
:108A4000E488204946F0805242F4004242EA8342E0
:108A500004F00F041C4B42EA845211400CEA030359
:108A6000194339600269D3692B430020F0BCD361FC
:108A7000704701F07F0101EB810500EBC50528245B
:108A8000012204FB0104022B85F81C11C5F82461A6
:108A900085F81F31A5F8221185F81D2104F58E7483
:108AA0000CD0002500EB8107012202FA01F1BF6919
:108AB00061F30F05BFE722711546B4E70025257164
:108AC000F0E700BFFF87CC13007833EC002310B52C
:108AD000194604464022FFF78DFF802120460023DF
:108AE0004022FFF787FFD4F8E835A078012284F808
:108AF00012215B689847002010BD00BF82B00023A0
:108B0000016801930B6901930E4B03E00A6901921E
:108B1000013B13D0019A002AF8DA019A094B42F07E
:108B200001020192019A0A610A69019203E00A694D
:108B30000192013B02D0019AD207F8D4002002B082
:108B4000704700BF400D0300436D064A1A61C278AA
:108B5000012A06D100F2CC5058614FF080221968EA
:108B60001A6070471800086010B580210446FFF7AE
:108B7000A9FE20460021FFF7A5FE2046BDE81040D3
:108B8000E2E700BF70B44B78012B26D00B784A691E
:108B900000EB83035C6D25682369D2B18A684A6162
:108BA00002F07F0223F4002323F07F0342F400222B
:108BB00013432361C378012B04BF0B696361C5F3C1
:108BC000076363F07B0363F31F652560002070BCBF
:108BD00070478A6802F07F02E4E782694C69156891
:108BE000136944B38E68B4428CBF06F07F0404F06E
:108BF0007F0423F4002323F07F0344F4002443EA9A
:108C0000040388BF4E611361C378012B1DD0C5F3E7
:108C1000076464F07B0464F31F651560002BD5D1F5
:108C20004B69002BD2D002690878516B0123834035
:108C30000B435363CAE723F4002323F07F0343F479
:108C400000231361C378012BE1D10B780C6900EB91
:108C50008300C5F30763816963F07B0363F31F65DA
:108C60004C610020156070BC704700BF2DE9F043D7
:108C70004B78012B30D00B784C6900EB83035E6D91
:108C8000356837691CB38B681C44013CB4FBF3F4B2
:108C9000C4F3090203FB02F3C3F312034B6114464E
:108CA00043EAC44363F31C073761C378012B04BF55
:108CB0000B697361CB78012B44D0C5F3076363F074
:108CC0007B0363F31F6535600020BDE8F0838A688D
:108CD0000124C2F31203E3E791F800804E6900EB30
:108CE000880EDEF818C0DCF80050DCF8107076B39F
:108CF000D1F80890384A06EB0904013CB4FBF9F4BA
:108D000002EAC444C6F312022243CC7807F060475B
:108D10003A43012C174649D0CCF81020C278012ADA
:108D200055D00269516B03FA08F30B435363C5F343
:108D3000076363F07B0363F31F65CCF800500020EA
:108D4000BDE8F0834B7973B345F00055B5E707F004
:108D5000604747F40027CC78CCF81070C378012B1B
:108D60002FD0012CE3D102699268D20554BF45F09F
:108D7000005545F08055C5F3076262F07B0262F34F
:108D80001F65CCF80050002B9ED1B0B2033080108C
:108D9000DEF8D04098D0CA6852F8041B2160013335
:108DA0009842F9D190E745F0805586E764F35E7705
:108DB000CCF81070C378012BD5D10A69CCF81420F7
:108DC000D1E70A69CCF81420012CB0D1CBE70B69AC
:108DD000CCF81430ABE700BF0000F81F38B501EB4A
:108DE000810400EBC4040D46002184F87453C4F8D8
:108DF0008C1384F87513C4F88833C4F88023C378BF
:108E00002821012B01FB050108BFEDB201F55D71C1
:108E100008BFC4F884231DB9FFF7B4FE002038BD95
:108E2000FFF724FF002038BD70B5104BD3F8682839
:108E300093F8805804461AB193F86C382B430DD040
:108E400081212046FFF73EFD022D00D070BD204657
:108E5000074ABDE870401F230121BFE70121FFF74A
:108E600031FD20468121BDE870402BE5C02E002059
:108E70002037002010B501EB8101084A00EBC10149
:108E80000446B1F88C131046FFF7EEFB034A204668
:108E900040230121FFF7A2FF002010BD443700202E
:108EA000E8E700BF10B50223044640228121FFF706
:108EB000A1FD2046022340220121FFF79BFD8221D4
:108EC000204603230822FFF795FD064B02229A83D2
:108ED000FFF740FC044A204640230121FFF77EFFB4
:108EE000002010BD000000204437002038B50822C3
:108EF0000D46044603238321FFF77CFD29462046C7
:108F0000FFF7D0FF002038BD82B000230193019A03
:108F1000094B42F010020192C168019A0A610A6984
:108F2000019203E00A690192013B02D0019AD20644
:108F3000F8D4002002B07047400D030082B0002337
:108F40000193019A0B4B42F020020192019A61F3C6
:108F50008A120192C168019A0A610A69019203E0CA
:108F60000A690192013B02D0019A9206F8D40020CE
:108F700002B07047400D030070B50446144EFFF771
:108F80000BFD2046022340228121FFF733FD4022C2
:108F9000012120460223FFF72DFDD6F8C438002515
:108FA0001B6886F85C58284686F880589847204603
:108FB000FFF7AAFF20460121FFF7C0FF204606F574
:108FC00006621F230121FFF709FF284670BD00BF7D
:108FD000C02E00200E4BDA68D20310D4DA68D10616
:108FE0000FD4DA68D20510D4DA6812F0E00F0AD193
:108FF000DB6813F0020F14BF08200920704701201E
:10900000704706207047072070470220704700BF56
:10901000003C024030B1044B93F9C8080028D4BF8B
:1090200000200120704700BFC02E002008B5FFF7C8
:10903000F1FF18B1024BD3F8CC380B8008BD00BF4C
:10904000C02E002008B5FFF7E5FF18B1024B93F8DA
:10905000D0380B7008BD00BFC02E002008B5FFF748
:10906000D9FF80B10B4BB3F8D23863B1192B0BD9B0
:10907000642B0BD9C82B0BD9B3F5C87F94BF03233E
:10908000042301330B7008BD0023FAE70123F8E73E
:109090000223F6E7C02E002010B5FFF7BBFF48B152
:1090A000064B93F8D44834B993F8D5480C7093F82C
:1090B000D638137010BD0024F8E700BFC02E002082
:1090C0000420704728B1034B93F9F800003818BF0B
:1090D000012070470000002008B5FFF7F3FF50B1F2
:1090E000054B93F9F820022A03BF93F8FB30C3F332
:1090F00040030B70002008BD0000002008B5FFF7FA
:10910000E1FF80B10C4A92F9FA3092F9F820012A75
:109110000ED1272B08DC182B08DC0F2BD4BF002323
:10912000012301330B7008BD0323FAE70223F8E79C
:109130000133DBB2F6E700BF0000002010B5FFF7F7
:10914000C1FFC0B10D4C94F8FB30DB0714D494F987
:10915000F930002BB8BF0733DB100133DBB20B70E3
:1091600094F9F930594201F0070103F0070358BFA1
:109170004B420133137010BD0023F0E700000020C4
:1091800003207047F0B5174AD2F8D85892F8D7386C
:1091900015F0005514BF042706275C1CB4FBF7F636
:1091A00007FB164692F8DC78BE420CD01EB2DB00FC
:1091B00055B102F50E652B4404F0030445F8360062
:1091C00082F8D7485960F0BD02F510652B4445F888
:1091D000360059600621B4FBF1F301FB134482F819
:1091E000D748F0E7C02E0020002230B504461046D4
:1091F000914200DC30BDA35C0825584010F0800F80
:109200004FEA400318BF83F0D503013DD8B2F5D132
:109210000132EDE710B5E9B10F4C94F9F820CAB16D
:109220004B1EDBB2032B15D8012A0C4A0C484FEA1F
:10923000C30313444FF005010CBF1B799B7984F8DD
:109240000431FFF7D1FF062184F80501BDE8104085
:10925000034897E710BD00BF00000020BCB604081B
:1092600000010020F8B51A4C94F83039002BFBD1DE
:1092700059B301444E1E451ED4F80C28D4F80818E2
:1092800015F8017F531CC3F30A038B422CBF4FF424
:1092900000600020C91A224401440129C4F80C3896
:1092A00082F834790FD1012034F026F9D4F8083847
:1092B000D4F80C188B4294BF4FF4006200225B1A62
:1092C0001344012BEFD0B542D6D10020F8BD00BF2A
:1092D000C02E0020094B0846D3F8281810B559B104
:1092E000D3F82838052B07D1054C002AE36B03DDA2
:1092F0001146FFF7B7FFE36B10BD00BFC02E002083
:10930000B83F002010B590F84C10002380F84C3086
:1093100079B10B4CD4F828286AB1D4F82828052A4A
:109320000BD1084C3830E36BFFF79CFFE36B012057
:1093300010BD0120FCE71046FAE71846F8E700BF29
:10934000C02E0020B83F0020002280F84D20D9E731
:1093500090F84C20531C0244DBB280F84C3082F869
:10936000381090F84D200AB1132B00D9CAE7704786
:1093700070B53F4CA36C06460BB11D22DA8018462F
:10938000092134F069FBA06C34F00CFD94F85230E4
:10939000013B5BB2022BDBBF364A1B010020D058D9
:1093A00060640223102184F840303EF07FFB4021AE
:1093B0000A203BF047FEFF218A203BF043FE94F851
:1093C0005030C0F38012012B84F8532000F040008D
:1093D0003AD0022B284D41D0002B3BD094F854308A
:1093E000B5F80611606C1A2B01BFB5F80631A4F868
:1093F0005A20A4F85C30A4F858603EF057FBB5F84A
:109400000611606C3EF052FBA06C34F0C5FC0221EA
:1094100000203BF017FEA06C34F0C4FC606C04210B
:109420003EF044FB94F8652094F8663094F864109C
:1094300084F86010C2F12002C3F1100384F86720A1
:1094400084F86830012070BD66B908230A4DA5F87C
:109450000631C3E71023A5F80631BFE70823A5F8B6
:109460000631BBE7002814BF08231023EEE700BF36
:10947000B83F00205005001000000020F8B5114C46
:109480000546E06E90F834301E3B012B02D90021D6
:1094900034F028FA0C4F0026AE42E06E0BDB0021C0
:1094A00034F020FAE36BC4F89030B4F89430013310
:1094B000A4F89430F8BD17F8011B34F013FA013604
:1094C000EAE700BFB83F00202840002070B5124CEA
:1094D00094F8DC3800EBC3020D4650F833105068A6
:1094E0000E4A0023984212DC8B780D4A5B0882F802
:1094F000A830C2F8A400FFF7C1FF94F8DC180131CE
:10950000B1FBF5F305FB131184F8DC1870BDCE5CDC
:1095100002F8016B0133E5E7C02E0020284000204F
:10952000B83F0020094890F8D72890F8DC389A42D4
:109530000BD0D0F8D8389B0003D5042100F50E607D
:10954000C4E7062100F51060C0E77047C02E002078
:1095500038B50C46FFF7B6FD054638B10E4B93F80B
:10956000FB20D20704D5B3F8FC002080284638BD84
:1095700093F9F930594201F0070103F0070258BF8F
:109580004A42002BB8BF0733DB1001320133D1B29E
:10959000D8B20AF093FEE8E70000002000487047C8
:1095A000C440002000487047E440002000F01F0243
:1095B00040090123032803FA02F304D004280CD045
:1095C000022805D07047074A116C0B43136470479B
:1095D000044A516C0B4353647047024A116B0B43AE
:1095E00013637047003802402DE9F0474E4B446842
:1095F0009C420646154633D0836813B11A689B888F
:109600005383A38901F1340C4FF47A734FF6FF7042
:109610000DE093B2A3814FF47A732789FF0703F11A
:10962000FF3219D5A28905F8012B8C450BD011F812
:10963000012B2789013BBF079BB2EAD48342F8D1B3
:10964000204635F0A3F9B368002B69D01A689B88CF
:1096500013830120BDE8F08793B28342DDD1EFE7A9
:10966000324F07F50D79D7F83C808E46CC4601F194
:10967000300A74460FCC5445CCF80000CCF80410E6
:10968000CCF80820CCF80C30A6460CF1100CF0D128
:1096900020682749274ACCF80000342326484B602D
:1096A0005360C1F80C90D0600868244C1E4B40F009
:1096B000010008601168022041F00101116060831F
:1096C0009A8892B202439A809A8892B242F001023A
:1096D0009A801A8892B242F0400203211A8087F8D9
:1096E000AA1204E0FB6BA3EB0803142B0FD897F826
:1096F000AA32022BF6D1104C0FCC0FC50FCC0FC5E0
:109700000FCC0FC523682B600120BDE8F087B0683F
:1097100000289FD0036882881A830020BDE8F08764
:109720000120BDE8F08700BF00300140B83F0020B5
:109730005864024040640240284200200004024075
:10974000F0B42D4F2D4E9FED2E7AB6F848C007F598
:109750001C750FCD07F52B740FC40FCD0FC407EE8A
:1097600090CA0FCD97EDAE6AD7EDAF6AD7EDB05A7C
:109770002D68F8EEE77A0FC427EE866A67EEA66AD0
:10978000BDEEC66A67EEA57A16EE103AFDEEE66A01
:10979000A6F84A30FDEEE77A16EE903A2560A6F874
:1097A0004C3017EE903AD7EDAB7AD7EDAC5AC6ED08
:1097B000297A67EE877A97EDAD6AA6F84E3065EEA6
:1097C000876AFDEEE77A26EE077A17EE903AFDEE0D
:1097D000E66AA6F8BC30BDEEC77A16EE903AA6F857
:1097E000BE3017EE103AC6ED2A5A86ED2B6AA6F85F
:1097F000C030F0BC704700BFB83F002050050010DB
:10980000333383412DE9F041424D434BEC6F9C4291
:10981000884632D0D5F8803013B11A689B885383BC
:1098200040F2E9332289013B12F0020F9BB21AD0B9
:1098300080B2A08140F2E9332289013B12F0010F8E
:109840009BB217D0A38901234246204600213EF057
:1098500059F9D5F88030002B58D01A689B881383AB
:109860000120BDE8F081002BDCD1204635F08EF8D8
:10987000EC6FE8E7002BDFD1F7E7284A284F82F8A2
:10988000340203F59A334033022002F51C7102F5CD
:109890000D7ED66B78605860C7F80CE0D960D7F8B9
:1098A00000C020494CF0010CC7F800C01F6847F009
:1098B00001071F604883A3889BB20343A380A3884A
:1098C0009BB243F00103A38023889BB243F0400383
:1098D0000320238082F8AA0203E0D36B9B1B142B86
:1098E0000AD892F8AA32022BF7D192F8713288F88E
:1098F00000300120BDE8F081D5F880000028B0D00C
:10990000036882881A830020BDE8F0810120BDE849
:10991000F08100BF5005001000300140B83F00202A
:10992000586402400004024000285FD00368374AB0
:109930002DE9F04103F13F4404F57E0402EB94224B
:10994000012492F8202002F01F055209032A04FA8C
:1099500005F456D0042A4FD0022A48D08588B5FA9B
:1099600085F0C0F11F00C0F3CC0603EB860600F0C3
:10997000070082000F24306A944020EA040030621D
:10998000306A01FA02F20243002132624FF0010E06
:109990000A464FF0030C02270EFA02F838EA0500D7
:1099A00002F101021CD118680CFA01F420EA04004B
:1099B0001860186807FA01F606431E609E6826EADA
:1099C00004069E6098689860586820EA080058600D
:1099D00058685860D86820EA0400D860D868D86011
:1099E000102A01F10201D7D1BDE8F0817047084A81
:1099F000556C2C435464B1E7054A156B2C43146332
:109A0000ACE7034A156C2C431464A7E7BCB6040802
:109A1000003802402DE9F04700230F6801264FF07F
:109A2000030C02E00133102B41D006FA03F232EAB4
:109A30000704F7D1D0F800E05C000CFA04F52EEA38
:109A4000050EC0F800E091F80490D0F800A009FAE3
:109A500004FE09F1FF394EEA0A0EB9F1010FA846DA
:109A6000C0F800E06FEA050515D8D0F808E005EA6F
:109A70000E0585604D79D0F808E0A54045EA0E0551
:109A80008560456825EA020242608A7945689A4005
:109A900092B22A434260C26822EA0802C260CA79CE
:109AA000C568A24001332A43102BC260BDD1BDE876
:109AB000F08700BFF0B5514F9DB03422002106461B
:109AC0000FA841F092FDD7F808070FAB02AA1821A2
:109AD0003DF056F918B9002528461DB0F0BDD7F85D
:109AE00008070FAB02AA16213DF04AF90028F2D070
:109AF000D7F808070FAB02AA1E213DF041F9054631
:109B0000002854D00A24002033F08AFCC82033F007
:109B1000F3FC013CF7D12146204634F0C5F9384B1F
:109B2000019326B950E033F07BFCB4424CD2019B48
:109B3000D7F808071A59019B1192043304F1006108
:109B40001A59019B1292083301F500511B59019AD1
:109B500010910C3213931559019A149510320FABD2
:109B6000125901991592143102AA0959019D1691B1
:109B700018351D2155F804C0019DCDF85CC01C3579
:109B80002D5918953DF0FCF8054620340020002D95
:109B9000C9D12824002033F043FCC82033F0ACFCAA
:109BA000013CF7D12146204634F07EF994E7154B6D
:109BB000D3F8E0220132C3F8E022D3F8E022282AC9
:109BC00089DDC3F8E00287E7D7F808070FAB02AAE0
:109BD0001F213DF0D5F800283FF47DAF2824002058
:109BE00033F01EFC142033F087FC013CF7D12146F2
:109BF000204634F059F901256EE700BF50050010EA
:109C0000CC940020B83F00202DE9F041A94C94F8F5
:109C1000F80204F53A7382B0C4F8E43218B90020AF
:109C200002B0BDE8F08133F04DF9C4F8F00220B184
:109C3000837913B1353B012BF1D894F8F932013B0C
:109C400002225BB2934284F8E822E8DC9A4A1B01C4
:109C5000D358002BE3D0C4F8EC3208B11A23C380E8
:109C6000092133F0F9FED4F8E432986834F09AF818
:109C7000D4F8E432102158683DF018FFD4F8E432EB
:109C8000C4F8FC3232209F23009333F035FC0023CC
:109C9000D4F8E4628DF805307068884B984200F083
:109CA000FA80B36813B11A689B8853834FF0040E8F
:109CB00083890DEB0E074FF47A73EC464FF6FF7174
:109CC000BCF1000F00F0B8801CF8012B0589013BA6
:109CD000AD079BB252D593B283814FF47A73058955
:109CE000ED0703F1FF3243D5828992B20FB107F835
:109CF000012BBEF1010EE3D1B36813B11A689B8842
:109D000013839DF806209DF805009DF807106C4B05
:109D1000120242EA00420A439A4200F08F8077DC46
:109D2000684B9A4262D02CDCA3F51A43033B9A425B
:109D300000F09F8003F51A4302339A4253D1624BDD
:109D4000C4F804334FF480304FF40001C4E9C20179
:109D50004FF480720023A4F8102384F812335B4B75
:109D6000C4F80033012084F8190302B0BDE8F08183
:109D700093B28B42B3D134F009FEBDE78B42A5D13B
:109D8000F9E7534B9A427CD001339A42D7D0002551
:109D900094F8F802A4F80453C4E9C255A4F8105387
:109DA00033F090F84B4E804616F8017B384633F07E
:109DB00089F8804577D001350B2DF5D194F82853DB
:109DC000284633F07FF8804563D094F8295328461D
:109DD00033F078F8804508BF01217FF420AF284692
:109DE00034F04FFD1BE73C4B9A42D0D14FF0012598
:109DF0004FF480304FF080714FF480720023C4E93B
:109E0000C150C4F80C13A4F8102384F81233A6E749
:109E1000324B1344042BBAD8042BB8D801A252F801
:109E200023F000BF739E0008839E00083F9D00083A
:109E3000ED9D00083D9E0008FF2247E7284BC4F82F
:109E400004334FF000714FF480334FF480750022DB
:109E5000C4F80833C4F80C130123D4F8FC02A4F8A6
:109E60001053B72184F8122384F818333AF0EAFC2F
:109E700075E71C4BC4F804334FF480304FF40011E5
:109E800064E7194BC4F804334FF480304FF4800179
:109E90005CE70021A3E7042330460DEB030269468B
:109EA00034F014FD2DE73846294634F0FCFC002040
:109EB000B6E600BFB83F002050050010003001405A
:109EC0001920C20018BA200080000001E4B604087E
:109ED0001620C200D442002018600100EBBF10FF22
:109EE0000002000120000001400000012DE9F041C6
:109EF000204D95F82F3385F82A3305F54B7705F576
:109F00004C7600244FF0050817F8010B20BB306099
:109F10000134032C06F10406F6D195F82A13D5F87E
:109F20003003C94301F0010133F0B6FF95F82A135D
:109F3000D5F8340381F00201C1F3400133F0ACFFE6
:109F400095F82A13D5F8380381F00401BDE8F041F3
:109F5000C1F3800133F0A0BF32F0B4FF013401211E
:109F60003060E3B210B180F80680C371306833F01E
:109F700073FDCEE7B83F002099B10A6B824216D933
:109F8000154BD3F86C23914221D34C3991421ED307
:109F90000B6B9842F9D38B6B9842F6D80B46184658
:109FA00070470D4BD3F86C130A6B904212D30B68B9
:109FB0000BB9F4E70A6B90420B4602D38A6B9042CE
:109FC000EDD951F84C3F002BF4D1184670470023CF
:109FD000184670470A46D8E7B83F00202DE9F047F9
:109FE000CC0143D10346224A43F8082B4FF0FF32FD
:109FF0004260022418467E26DFF87880D8F87093F5
:10A000002644013E051D49466FF070474FF0010A96
:10A0100008E0A3421CD0631C45F8043C321B1C46DC
:10A020000435CAB10B6BA34202D88B6BA34204D296
:10A030002046FFF7A1FF014690B10A794B6B002A39
:10A04000E7D1A34204D0E6D245F8042C631CE5E72F
:10A0500045F8047C631CE1E7C8F87013BDE8F0879D
:10A0600045F804AC321B631C4946D8E78026C3E799
:10A07000F8FFFF0FB83F0020F0B40D6800240CE09B
:10A08000BCF1050F18D8A0F137030A2B14D104EB4B
:10A09000840415F8010B03EB4404A0F13003DEB295
:10A0A000092EA0F16107A0F1410CF0D9052FE7D8E6
:10A0B000A0F157030A2BEAD00D601460F0BC704782
:10A0C000036870B55E6A26B133460522BDE870406C
:10A0D000184704460D464E1D00E023689B68204645
:10A0E00098470028F9D0236815F8011B1B68204603
:10A0F0009847B542F1D170BD2DE9F04F9BB0DDE935
:10A10000247ADDF8989004460D461646984602E0FB
:10A11000206833F0DBFB206833F0E0FB0028F7D148
:10A120000146642201A841F060FA2A4B8DF80450E0
:10A13000CDF85CA00293002D48D0AB1E012B47D96F
:10A14000042D14BF00230323DFF88CA08DF8053005
:10A15000DAF83C3003971F440123CDE905940497B6
:10A160008DF85B3036B14246314607A841F0DCF944
:10A170008DF85A809AF8BA734FF00009132FCDF872
:10A18000609015D89AF8B9B3642202FB0BA001A91C
:10A190000BF1010B00F56F7041F0C6F9BBF1130F25
:10A1A000D8BF5FFA8BF901378AF8BA738AF8B99386
:10A1B000236843B143463246294620461BB0BDE8DA
:10A1C000F04F0DF079BB1BB0BDE8F08F0523BBE766
:10A1D0000223B9E730430020B83F00209FED737A97
:10A1E00007EE901A20EE070AF8EE677A27EE800A4B
:10A1F000FDEEC07A17EE903A2033402B00F2C78074
:10A20000DFED6B7AB4EEE70AF1EE10FAF0EE407A89
:10A210000CDD9FED686ADFED686AB0EE677AB4EE38
:10A22000E67AF1EE10FA77EEC67AF6DC9FED637A05
:10A23000F4EEC77AF1EE10FA0CD59FED5E6ADFED11
:10A24000606AB0EE677AB4EEE67AF1EE10FA77EE75
:10A25000867AF6D49FED5B7AF4EEC77AF1EE10FAC7
:10A2600000F38D809FED587AF4EEC77AF1EE10FA84
:10A2700044BF9FED527A77EE677A27EEA76ADFED4B
:10A28000535A9FED537ADFED536AA6EE257A67EEB7
:10A29000865AE6EE076AB6EE007AE5EEA67A27EE73
:10A2A000877ADFED486A70EE267ABDEEE76A16EE31
:10A2B000103A2033402B67D8B4EEE60AF1EE10FADC
:10A2C0000CDDDFED3C5A9FED3C6AF0EE676AF4EE80
:10A2D000C66AF1EE10FA77EEE57AF6DCDFED376A62
:10A2E000F4EEE67AF1EE10FA0CD5DFED325A9FED7E
:10A2F000346AF0EE676AF4EEC66AF1EE10FA77EEB1
:10A30000A57AF6D4DFED2F6AF4EEE67AF1EE10FAD4
:10A3100040DDDFED276A76EEE77A67EEA75A9FED1C
:10A320002B5A9FED2B6ADFED2B6AA5EE856A27EE8F
:10A33000A55AE5EE866AB8EE006AE5EE267A67EE83
:10A34000867AC7EE206A0023836143610362C3619A
:10A35000B7EE006A76EE865A76EE666A86EE257A63
:10A3600067EE277A66EE876AC0ED017AC0ED037A60
:10A3700080ED007A80ED027AC0ED046A70479FEDAF
:10A380000C7A77EE677A78E7DFED137AD9E79FEDFD
:10A39000127A86E7DFED0C6AF4EEE67AF1EE10FA57
